:020000040000FA
:100000000008002055010000D70100000170000029
:100010000B70000015700000297000001F700000B8
:1000200000000000000000000000000079750000E2
:10003000F301000000000000F7010000FB010000D8
:10004000FF010000030200000000000051840000D6
:10005000000000000B020000000000000000000093
:100060000F02000013020000170200001B02000034
:100070001F02000023020000270200002B020000E4
:100080002F0200003302000000000000000000000A
:10009000370200003B0200000000000000000000EA
:1000A0003F02000043020000470200004B02000034
:1000B0004F02000053020000570200005B020000E4
:1000C0005F02000063020000670200006B02000094
:1000D0006F0200000000000073020000000000003A
:1000E00077020000000000007B0200007F02000099
:1000F00000000000830200000000000087020000F2
:100100000000000000000000000000008B02000062
:100110008F02000000000000930200009702000020
:10012000000000009B020000000000000000000032
:1001300000000000000000000000000000000000BF
:1001400000000000000000000000000000000000AF
:100150009F020000002080F31488BFF36F8F80F3AC
:100160000A8880F30B8814490860BFF34F8F07F0AB
:1001700055F8124C124DAC4209DA21686268A36846
:10018000043BA2BFC858D050FAE70C34F3E70D4B3C
:100190000D4CA34208DA19685A680020043AA4BF3B
:1001A0008850FBE70833F4E772B60848084908604E
:1001B00007F08AF806F0E8FE94ED00E0A4020000E3
:1001C000C8020000C8020000E802000000000000B1
:1001D00008ED00E0FEE7FFF7FEBF06F011BF06F0F6
:1001E00014BF06F017BF06F01FBF06F018BF07F0D8
:1001F000C3B9FFF7FEBFFFF7FEBFFFF7FEBFFFF774
:10020000FEBFFFF7FEBF08F023B9FFF7FEBFFFF701
:10021000FEBFFFF7FEBFFFF7FEBFFFF7FEBFFFF712
:10022000FEBFFFF7FEBFFFF7FEBFFFF7FEBFFFF702
:10023000FEBFFFF7FEBFFFF7FEBFFFF7FEBFFFF7F2
:10024000FEBFFFF7FEBFFFF7FEBFFFF7FEBFFFF7E2
:10025000FEBFFFF7FEBFFFF7FEBFFFF7FEBFFFF7D2
:10026000FEBFFFF7FEBFFFF7FEBFFFF7FEBFFFF7C2
:10027000FEBFFFF7FEBFFFF7FEBFFFF7FEBFFFF7B2
:10028000FEBFFFF7FEBFFFF7FEBFFFF7FEBFFFF7A2
:10029000FEBFFFF7FEBFFFF7FEBFFFF7FEBFFFF792
:1002A000FEBF00BF4066030000980020B8010000B8
:1002B00000660300A052002040000000A06503007B
:1002C0000040002060000000B89900208815000060
:1002D0000010002000200000E05200202045000017
:0802E000604000204012000004
:10030000024B0A460146186800F042B84C9900209A
:1003100008B5074B044613B1002100E000BF054BB0
:100320001868836A03B1984720462AF0DDFF00BFB2
:10033000000000004005000070B50D4D00260D4C7A
:10034000641BA410A64209D10B4D00260B4C2AF0C9
:10035000CDFF641BA410A64205D170BD55F8043B27
:1003600001369847EEE755F8043B01369847F2E727
:10037000B0990020B0990020B0990020B4990020D5
:10038000024B0146186800F011B800BF4C990020DC
:1003900038B502FB01F5294600F052F8044618B1C1
:1003A0002A46002101F042FC204638BD38B50546FA
:1003B000002941D051F8043C0C1F002BB8BFE418B1
:1003C00000F0B0F81D4A136833B963601460284622
:1003D000BDE8384000F0ACB8A34208D92068211825
:1003E0008B4201BF19685B6809182160EDE71A4666
:1003F0005B680BB1A342FAD911685018A0420BD127
:1004000020680144501811608342E0D118685B688D
:10041000014453601160DAE702D90C232B60D6E760
:10042000206821188B4202BF19685B680918636055
:1004300008BF21605460CAE738BD00BF2CAF002060
:10044000F8B5CD1C064625F0030508350C2D38BF40
:100450000C25002D01DBA94203D90C2333600020B9
:10046000F8BD00F05FF821490A6814469CB9204F96
:100470003B6823B92146304600F03CF838602946F5
:10048000304600F037F8431C23D10C23304633604C
:1004900000F04EF8E3E723685B1B17D40B2B03D95E
:1004A00023601C44256004E06368A2420CBF0B601B
:1004B0005360304600F03CF804F10B00231D20F09F
:1004C0000700C21ACCD01B1AA350C9E722466468A1
:1004D000CCE7C41C24F00304A042E3D0211A304628
:1004E00000F008F80130DDD1CFE700BF2CAF0020CD
:1004F00030AF002038B50023054D044608462B6078
:100500002AF0E2FE431C02D12B6803B1236038BD00
:1005100034AF0020034613F8012B002AFBD1181A30
:1005200001387047014800F009B800BF38AF00201B
:10053000014800F004B800BF38AF00207047704792
:10054000509900201FB51EF0010FCDE90123009145
:1005500003460CBF01210021074A4FF4807007F0C9
:10056000DDFD05B05DF804EB714672467346F44656
:100570008EF30088744700BF656000001FB51EF051
:10058000010FCDE90123009103460CBF0121002199
:10059000074A4FF4807007F0C1FD05B05DF804EB29
:1005A000714672467346F4468EF30088744700BF66
:1005B000C96000001FB51EF0010FCDE901230091B5
:1005C00003460CBF01210021074A4FF4807007F059
:1005D000A5FD05B05DF804EB714672467346F4461E
:1005E0008EF30088744700BF356100001FB51EF010
:1005F000010FCDE90123009103460CBF0121002129
:10060000074A4FF4807007F089FD05B05DF804EBF0
:10061000714672467346F4468EF30088744700BFF5
:10062000896100001FB51EF0010FCDE90123009183
:1006300003460CBF01210021074A4FF4807007F0E8
:100640006DFD05B05DF804EB714672467346F446E5
:100650008EF30088744700BFCF6100001FB51EF005
:10066000010FCDE90123009103460CBF01210021B8
:10067000074A40F2011007F051FD05B05DF804EBA8
:10068000714672467346F4468EF30088744700BF85
:10069000B54A00001FB51EF0010FCDE901230091FE
:1006A00003460CBF01210021074A40F2011007F068
:1006B00035FD05B05DF804EB714672467346F446AD
:1006C0008EF30088744700BF154B00001FB51EF065
:1006D000010FCDE90123009103460CBF0121002148
:1006E000074A40F2011007F019FD05B05DF804EB70
:1006F000714672467346F4468EF30088744700BF15
:10070000814B00001FB51EF0010FCDE901230091C0
:1007100003460CBF01210021074A40F2011007F0F7
:10072000FDFC05B05DF804EB714672467346F44675
:100730008EF30088744700BFD14B00001FB51EF038
:10074000010FCDE90123009103460CBF01210021D7
:10075000074A4FF4817007F0E1FC05B05DF804EB47
:10076000714672467346F4468EF30088744700BFA4
:10077000592500001FB51EF0010FCDE9012300919E
:1007800003460CBF01210021074A4FF4817007F096
:10079000C5FC05B05DF804EB714672467346F4463D
:1007A0008EF30088744700BFF52300001FB51EF0CC
:1007B000010FCDE90123009103460CBF0121002167
:1007C000074A4FF4817007F0A9FC05B05DF804EB0F
:1007D000714672467346F4468EF30088744700BF34
:1007E000652300001FB51EF0010FCDE90123009124
:1007F00003460CBF01210021074A4FF4817007F026
:100800008DFC05B05DF804EB714672467346F44604
:100810008EF30088744700BF952300001FB51EF0BB
:10082000010FCDE90123009103460CBF01210021F6
:10083000074A4FF4817007F071FC05B05DF804EBD6
:10084000714672467346F4468EF30088744700BFC3
:10085000F52200001FB51EF0010FCDE90123009124
:1008600003460CBF01210021074A40F2031007F0A4
:1008700055FC05B05DF804EB714672467346F446CC
:100880008EF30088744700BF6F3D00001FB51EF057
:10089000010FCDE90123009103460CBF0121002186
:1008A000074A40F2031007F039FC05B05DF804EB8D
:1008B000714672467346F4468EF30088744700BF53
:1008C000B33C00001FB51EF0010FCDE901230091DC
:1008D00003460CBF01210021074A40F2031007F034
:1008E0001DFC05B05DF804EB714672467346F44694
:1008F0008EF30088744700BF033D00001FB51EF053
:10090000010FCDE90123009103460CBF0121002115
:10091000074A40F2031007F001FC05B05DF804EB54
:10092000714672467346F4468EF30088744700BFE2
:10093000C73D00001FB51EF0010FCDE90123009156
:1009400003460CBF01210021074A40F2031007F0C3
:10095000E5FB05B05DF804EB714672467346F4465C
:100960008EF30088744700BF513C00001FB51EF095
:10097000010FCDE90123009103460CBF01210021A5
:10098000074A40F2031007F0C9FB05B05DF804EB1D
:10099000714672467346F4468EF30088744700BF72
:1009A000393D00001FB51EF0010FCDE90123009174
:1009B00003460CBF01210021074A40F2031007F053
:1009C000ADFB05B05DF804EB714672467346F44624
:1009D0008EF30088744700BF173E00001FB51EF05D
:1009E000010FCDE90123009103460CBF0121002135
:1009F000074A40F2031007F091FB05B05DF804EBE5
:100A0000714672467346F4468EF30088744700BF01
:100A1000613E00001FB51EF0010FCDE901230091DA
:100A200003460CBF01210021074A40F2031007F0E2
:100A300075FB05B05DF804EB714672467346F446EB
:100A40008EF30088744700BFAB3E00001FB51EF058
:100A5000010FCDE90123009103460CBF01210021C4
:100A6000074A40F2031007F059FB05B05DF804EBAC
:100A7000714672467346F4468EF30088744700BF91
:100A8000E13E00001FB51EF0010FCDE901230091EA
:100A900003460CBF01210021074A40F2031007F072
:100AA0003DFB05B05DF804EB714672467346F446B3
:100AB0008EF30088744700BF0B2D00001FB51EF099
:100AC000010FCDE90123009103460CBF0121002154
:100AD000074A40F2031007F021FB05B05DF804EB74
:100AE000714672467346F4468EF30088744700BF21
:100AF000432D00001FB51EF0010FCDE90123009129
:100B000003460CBF01210021074A40F2031007F001
:100B100005FB05B05DF804EB714672467346F4467A
:100B20008EF30088744700BFFF2A00001FB51EF037
:100B3000010FCDE90123009103460CBF01210021E3
:100B4000074A40F2031007F0E9FA05B05DF804EB3C
:100B5000714672467346F4468EF30088744700BFB0
:100B6000552B00001FB51EF0010FCDE901230091A8
:100B700003460CBF01210021074A40F2031007F091
:100B8000CDFA05B05DF804EB714672467346F44643
:100B90008EF30088744700BFA92B00001FB51EF01C
:100BA000010FCDE90123009103460CBF0121002173
:100BB000074A40F2031007F0B1FA05B05DF804EB04
:100BC000714672467346F4468EF30088744700BF40
:100BD000072C00001FB51EF0010FCDE90123009185
:100BE00003460CBF01210021074A40F2031007F021
:100BF00095FA05B05DF804EB714672467346F4460B
:100C00008EF30088744700BF592C00001FB51EF0FA
:100C1000010FCDE90123009103460CBF0121002102
:100C2000074A40F2031007F079FA05B05DF804EBCB
:100C3000714672467346F4468EF30088744700BFCF
:100C4000AB2C00001FB51EF0010FCDE90123009170
:100C500003460CBF01210021074A40F2031007F0B0
:100C60005DFA05B05DF804EB714672467346F446D2
:100C70008EF30088744700BF952F00001FB51EF04B
:100C8000010FCDE90123009103460CBF0121002192
:100C9000074A40F2031007F041FA05B05DF804EB93
:100CA000714672467346F4468EF30088744700BF5F
:100CB000E52F00001FB51EF0010FCDE901230091C3
:100CC00003460CBF01210021074A40F2031007F040
:100CD00025FA05B05DF804EB714672467346F4469A
:100CE0008EF30088744700BF6D2D00001FB51EF005
:100CF000010FCDE90123009103460CBF0121002122
:100D0000074A40F2031007F009FA05B05DF804EB5A
:100D1000714672467346F4468EF30088744700BFEE
:100D2000D12D00001FB51EF0010FCDE90123009168
:100D300003460CBF01210021074A40F2031007F0CF
:100D4000EDF905B05DF804EB714672467346F44662
:100D50008EF30088744700BF392E00001FB51EF0C7
:100D6000010FCDE90123009103460CBF01210021B1
:100D7000074A40F2031007F0D1F905B05DF804EB23
:100D8000714672467346F4468EF30088744700BF7E
:100D90008F2E00001FB51EF0010FCDE90123009139
:100DA00003460CBF01210021074A40F2031007F05F
:100DB000B5F905B05DF804EB714672467346F4462A
:100DC0008EF30088744700BFEF2E00001FB51EF0A1
:100DD000010FCDE90123009103460CBF0121002141
:100DE000074A40F2031007F099F905B05DF804EBEB
:100DF000714672467346F4468EF30088744700BF0E
:100E0000432F00001FB51EF0010FCDE90123009113
:100E100003460CBF01210021074A40F2031007F0EE
:100E20007DF905B05DF804EB714672467346F446F1
:100E30008EF30088744700BF5F2A00001FB51EF0C4
:100E4000010FCDE90123009103460CBF01210021D0
:100E5000074A40F2031007F061F905B05DF804EBB2
:100E6000714672467346F4468EF30088744700BF9D
:100E7000AF2A00001FB51EF0010FCDE9012300913C
:100E800003460CBF01210021074A40F2031007F07E
:100E900045F905B05DF804EB714672467346F446B9
:100EA0008EF30088744700BF6F2800001FB51EF046
:100EB000010FCDE90123009103460CBF0121002160
:100EC000074A40F2031007F029F905B05DF804EB7A
:100ED000714672467346F4468EF30088744700BF2D
:100EE000D92800001FB51EF0010FCDE901230091A4
:100EF00003460CBF01210021074A40F2031007F00E
:100F00000DF905B05DF804EB714672467346F44680
:100F10008EF30088744700BFB92700001FB51EF08C
:100F2000010FCDE90123009103460CBF01210021EF
:100F3000074A40F2031007F0F1F805B05DF804EB42
:100F4000714672467346F4468EF30088744700BFBC
:100F5000192800001FB51EF0010FCDE901230091F3
:100F600003460CBF01210021074A40F2031007F09D
:100F7000D5F805B05DF804EB714672467346F44649
:100F80008EF30088744700BF432900001FB51EF090
:100F9000010FCDE90123009103460CBF012100217F
:100FA000074A40F2031007F0B9F805B05DF804EB0A
:100FB000714672467346F4468EF30088744700BF4C
:100FC000AB2900001FB51EF0010FCDE901230091F0
:100FD00003460CBF01210021074A40F2031007F02D
:100FE0009DF805B05DF804EB714672467346F44611
:100FF0008EF30088744700BF0B2A00001FB51EF057
:10100000010FCDE90123009103460CBF012100210E
:10101000074A40F2031007F081F805B05DF804EBD1
:10102000714672467346F4468EF30088744700BFDB
:10103000CD3000001FB51EF0010FCDE90123009156
:1010400003460CBF01210021074A40F2031007F0BC
:1010500065F805B05DF804EB714672467346F446D8
:101060008EF30088744700BF453100001FB51EF0A5
:10107000010FCDE90123009103460CBF012100219E
:10108000074A40F2031007F049F805B05DF804EB99
:10109000714672467346F4468EF30088744700BF6B
:1010A000BD3100001FB51EF0010FCDE901230091F5
:1010B00003460CBF01210021074A40F2031007F04C
:1010C0002DF805B05DF804EB714672467346F446A0
:1010D0008EF30088744700BF253200001FB51EF054
:1010E000010FCDE90123009103460CBF012100212E
:1010F000074A40F2031007F011F805B05DF804EB61
:10110000714672467346F4468EF30088744700BFFA
:10111000533300001FB51EF0010FCDE901230091EC
:1011200003460CBF01210021074A40F2031006F0DC
:10113000F5FF05B05DF804EB714672467346F44660
:101140008EF30088744700BFB33300001FB51EF054
:10115000010FCDE90123009103460CBF01210021BD
:10116000074A40F2031006F0D9FF05B05DF804EB22
:10117000714672467346F4468EF30088744700BF8A
:10118000073400001FB51EF0010FCDE901230091C7
:1011900003460CBF01210021074A40F2031006F06C
:1011A000BDFF05B05DF804EB714672467346F44628
:1011B0008EF30088744700BFC13400001FB51EF0D5
:1011C000010FCDE90123009103460CBF012100214D
:1011D000074A40F2031006F0A1FF05B05DF804EBEA
:1011E000714672467346F4468EF30088744700BF1A
:1011F0005B3400001FB51EF0010FCDE90123009103
:1012000003460CBF01210021074A40F2031006F0FB
:1012100085FF05B05DF804EB714672467346F446EF
:101220008EF30088744700BFDF3200001FB51EF048
:10123000010FCDE90123009103460CBF01210021DC
:10124000074A40F2031006F069FF05B05DF804EBB1
:10125000714672467346F4468EF30088744700BFA9
:10126000153500001FB51EF0010FCDE901230091D7
:1012700003460CBF01210021074A40F2031006F08B
:101280004DFF05B05DF804EB714672467346F446B7
:101290008EF30088744700BF8D3200001FB51EF02A
:1012A000010FCDE90123009103460CBF012100216C
:1012B000074A40F2031006F031FF05B05DF804EB79
:1012C000714672467346F4468EF30088744700BF39
:1012D000793500001FB51EF0010FCDE90123009103
:1012E00003460CBF01210021074A40F2031006F01B
:1012F00015FF05B05DF804EB714672467346F4467F
:101300008EF30088744700BFC93500001FB51EF07A
:10131000010FCDE90123009103460CBF01210021FB
:10132000074A40F2031006F0F9FE05B05DF804EB41
:10133000714672467346F4468EF30088744700BFC8
:10134000133600001FB51EF0010FCDE901230091F7
:1013500003460CBF01210021074A40F2031006F0AA
:10136000DDFE05B05DF804EB714672467346F44647
:101370008EF30088744700BF633600001FB51EF06F
:10138000010FCDE90123009103460CBF012100218B
:10139000074A40F2031006F0C1FE05B05DF804EB09
:1013A000714672467346F4468EF30088744700BF58
:1013B000AD3600001FB51EF0010FCDE901230091ED
:1013C00003460CBF01210021074A40F2031006F03A
:1013D000A5FE05B05DF804EB714672467346F4460F
:1013E0008EF30088744700BF553700001FB51EF00C
:1013F000010FCDE90123009103460CBF012100211B
:10140000074A40F2031006F089FE05B05DF804EBD0
:10141000714672467346F4468EF30088744700BFE7
:10142000B53700001FB51EF0010FCDE90123009173
:1014300003460CBF01210021074A40F2031006F0C9
:101440006DFE05B05DF804EB714672467346F446D6
:101450008EF30088744700BF153800001FB51EF0DA
:10146000010FCDE90123009103460CBF01210021AA
:10147000074A40F2031006F051FE05B05DF804EB98
:10148000714672467346F4468EF30088744700BF77
:10149000713800001FB51EF0010FCDE90123009146
:1014A00003460CBF01210021074A40F2031006F059
:1014B00035FE05B05DF804EB714672467346F4469E
:1014C0008EF30088744700BFBD3800001FB51EF0C2
:1014D000010FCDE90123009103460CBF012100213A
:1014E000074A40F2031006F019FE05B05DF804EB60
:1014F000714672467346F4468EF30088744700BF07
:10150000D13900001FB51EF0010FCDE90123009174
:1015100003460CBF01210021074A40F2031006F0E8
:10152000FDFD05B05DF804EB714672467346F44666
:101530008EF30088744700BF8D3B00001FB51EF07E
:10154000010FCDE90123009103460CBF01210021C9
:10155000074A40F2031006F0E1FD05B05DF804EB28
:10156000714672467346F4468EF30088744700BF96
:101570007D3900001FB51EF0010FCDE90123009158
:1015800003460CBF01210021074A40F2031006F078
:10159000C5FD05B05DF804EB714672467346F4462E
:1015A0008EF30088744700BF3D3A00001FB51EF05F
:1015B000010FCDE90123009103460CBF0121002159
:1015C000074A40F2031006F0A9FD05B05DF804EBF0
:1015D000714672467346F4468EF30088744700BF26
:1015E000093B00001FB51EF0010FCDE9012300915A
:1015F00003460CBF01210021074A40F2031006F008
:101600008DFD05B05DF804EB714672467346F446F5
:101610008EF30088744700BF013C00001FB51EF028
:10162000010FCDE90123009103460CBF01210021E8
:10163000074A40F2031006F071FD05B05DF804EBB7
:10164000714672467346F4468EF30088744700BFB5
:10165000A73F00001FB51EF0010FCDE90123009147
:1016600003460CBF01210021074A40F2031006F097
:1016700055FD05B05DF804EB714672467346F446BD
:101680008EF30088744700BF4B3F00001FB51EF06B
:10169000010FCDE90123009103460CBF0121002178
:1016A000074A4FF4827006F039FD05B05DF804EB8F
:1016B000714672467346F4468EF30088744700BF45
:1016C000335E00001FB51EF0010FCDE9012300912C
:1016D00003460CBF01210021074A4FF4827006F037
:1016E0001DFD05B05DF804EB714672467346F44685
:1016F0008EF30088744700BF3D5E00001FB51EF0EA
:10170000010FCDE90123009103460CBF0121002107
:10171000074A4FF4827006F001FD05B05DF804EB56
:10172000714672467346F4468EF30088744700BFD4
:101730006D5E00001FB51EF0010FCDE90123009181
:1017400003460CBF01210021074A4FF4827006F0C6
:10175000E5FC05B05DF804EB714672467346F4464D
:101760008EF30088744700BFC15E00001FB51EF0F5
:10177000010FCDE90123009103460CBF0121002197
:10178000074A40F2051006F0C9FC05B05DF804EB0D
:10179000714672467346F4468EF30088744700BF64
:1017A000454300001FB51EF0010FCDE90123009154
:1017B00003460CBF01210021074A40F2051006F044
:1017C000ADFC05B05DF804EB714672467346F44615
:1017D0008EF30088744700BF994300001FB51EF0C8
:1017E000010FCDE90123009103460CBF0121002127
:1017F000074A4FF4837006F091FC05B05DF804EBE6
:10180000714672467346F4468EF30088744700BFF3
:10181000A56E00002DE9F05F02DF4FF000042546C1
:1018200026462746A046A146A246A346F04703DF28
:10183000BDE8F09F2DE9F05F06DF4FF0000425467C
:1018400026462746A046A146A246A346F04707DF04
:10185000BDE8F09FC3438B4210B50ED332F01F0397
:101860000BD1013902F014030144102B81EA00046A
:101870003DD004DC63B1042B32D0002041E0142BB6
:10188000FBD11F2C40E8C0F30CD941E8C0F105E0C2
:101890001F2C40E800F305D941E800F11C460B4637
:1018A0008C42EAD122F01402013A0A2AE5D801A1B9
:1018B00051F822F0111900000B190000FD1800006A
:1018C0007B1800007B1800007B1800007B180000CC
:1018D000171900001119000005190000FD1800007B
:1018E0001F2C40E840F3DDD941E840F1D6E71F2C3A
:1018F00040E880F3D6D941E880F1CFE713F4001F28
:10190000BBD010BD13F4801FFAE75B02F9D5B4E732
:1019100013F4002FF4E713F4802FF1E72DE9E04FE3
:101920002746A046A146A246A346A446A2B02DEC57
:10193000000A84F3008825462646A447EFF3148561
:1019400015F0080F18BFB0EE400A3DEC000A22B0B7
:10195000BDE8E08F53B94AB9002908BF00281CBF71
:101960004FF0FF314FF0FF3000F05EB9ADF1080CE1
:101970006DE904CE00F006F8DDF804E0DDE90223AD
:1019800004B070472DE9F04F07468C460846099E83
:1019900015463C461946002B40F0C5808242B2FAFB
:1019A00082F746D94FB1C7F1200E00FA07F3BD40C8
:1019B00024FA0EFEBC404EEA030C4FEA15481FFA0B
:1019C00085FE220CBCFBF8F908FB19C309FB0EFAD3
:1019D00042EA03439A4528D9EB1809F1FF3004D2B3
:1019E0009A4502D9A9F102002B44A3EB0A03A4B241
:1019F000B3FBF8F208FB123302FB0EFE44EA034489
:101A0000A64514D92C1902F1FF3303D2A64501D9FA
:101A1000931E2C44A4EB0E0443EA00401EB1FC408C
:101A2000002334607360BDE8F08F4846DDE713465D
:101A3000F0E702B9FFDE87BB831A01214FEA154E9A
:101A4000AAB2200CB3FBFEFC0EFB1C330CFB02F80D
:101A500040EA0343984562D9EB180CF1FF3004D2F9
:101A6000984502D9ACF102002B44A3EB0803A4B2C1
:101A7000B3FBFEFC0EFB1C330CFB02F244EA0344F6
:101A8000A2424ED92C190CF1FF3304D2A24202D942
:101A9000ACF102032C44A41ABEE7C7F1200CBD40F0
:101AA00000FA07F320FA0CF84FEA154E24FA0CFC62
:101AB000BC404CEA0302ABB2B8FBFEFC110C0EFBBF
:101AC0001C800CFB03F941EA0040814523D928180A
:101AD0000CF1FF3104D2814502D9ACF10201284456
:101AE000A0EB090092B2B0FBFEFC0EFB1C000CFB4D
:101AF00003F842EA004398450FD9EB180CF1FF3286
:101B000004D2984502D9ACF102022B44A3EB08039E
:101B100042EA014192E76146E2E76246F6E7604643
:101B2000A3E76346B7E7834205D90EB1C6E9007063
:101B30000021084677E7B3FA83F181B9834201D3E4
:101B4000BA420AD8BC1A60EB030301209C46002E5F
:101B500067D0C6E9004C002165E70846F7E7C1F108
:101B6000200C8B4002FA01F522FA0CF420FA0CFB4F
:101B700027FA0CF28F401C4300FA01F34FEA144994
:101B800013431FFA84FE1A0CBBFBF9F809FB18BBC0
:101B900008FB0EFA42EA0B4292453ED9A21808F120
:101BA000FF3004D2924502D9A8F102002244A2EBF0
:101BB0000A029BB2B2FBF9F809FB182208FB0EFEE1
:101BC00043EA024296452AD9A21808F1FF3304D20B
:101BD000964502D9A8F10203224443EA0040A2EB51
:101BE0000E02A0FB05939A42CE46984602D306D138
:101BF0004F4504D20138B9EB050E63EB040886B1FA
:101C0000B7EB0E0362EB080707FA0CFCCB40CF40A2
:101C10004CEA0303C6E900379DE74046C7E7434661
:101C2000DBE73146FFE60000704700BF0346F0B532
:101C3000C9B29AB19C0715D115460C0444EA016457
:101C40000C4344EA0124D618032D0FD822F00305D3
:101C50002B446FF00305940805FB04221A449342B9
:101C600008D1F0BD03F8011B013AE2E7771B3C60A5
:101C7000043DE9E703F8011BF1E70346002030B516
:101C8000013A00D230BD1D780C78A54202D008B9C7
:101C9000281BF5E701330131F2E7F0B504468AB3BA
:101CA00041EA040515F0010513D1012A23D941EABF
:101CB000040313F0020312D1D618032E15D86FF0C7
:101CC0000306930806FB032204EB830401EB830164
:101CD00016E011F8013B013A04F8013BDFE731F867
:101CE000023B023A24F8023BDFE7CE1A3768E61AD5
:101CF0003760043BE0E70023DEE76B5C2B550135E2
:101D0000AA42FAD1F0BD03460020884200D17047B4
:101D10001A5C002AFBD00130F7E705DF7047F0B509
:101D200097B007460E461546002130220AA81C46E9
:101D3000FFF77CFF09AA039234220423CDE904278C
:101D40001422CDE90143CDE906260993032101239D
:101D500001AA03A80895FEF7EDFD17B0F0BD10B578
:101D600090B004463022002104A8FFF75FFF05234E
:101D7000039303AB019334230293002301211A46FA
:101D800001A80594FEF7F2FD10B010BD70B5342621
:101D900092B005AB05460C46324600211846FFF7C7
:101DA00045FF142304930123CDE90106194603AA34
:101DB00001A807950394FEF74DFD12B070BDF0B574
:101DC00093B007460E4615460021302206A81C4651
:101DD000FFF72CFF0723059305AB01933423CDE9CF
:101DE0000236012303AA194601A807970495FEF7B6
:101DF000F5FD049B236013B0F0BD30B593B00446ED
:101E00000D463022002106A8FFF710FF0C23059392
:101E1000236803AA099305AB01933423CDE9023467
:101E200004230493012301A819460895FEF762FED6
:101E300013B030BD70B594B004460E46154600216F
:101E4000302208A8FFF7F2FE0D2307932368022132
:101E50000B9307AB03933423CDE90436042301AA83
:101E6000029303A8012306950194FEF75FFE14B0C8
:101E700070BDF0B595B004460F46164600213022DD
:101E800008A81D46FFF7D2FE0E2307932368012101
:101E90000B9307AB01933423CDE90234042303AA47
:101EA000CDE9043701A802230696FEF75BFE069BE8
:101EB0002B6015B0F0BDF0B595B007460E4615463F
:101EC0000021302208A81C46FFF7B0FE0A23079322
:101ED00007AB03933423CDE904361A9B01AA02937E
:101EE0000221012303A80A9706950194FEF7CAFD73
:101EF0001B9B029A1A6015B0F0BD2DE9F04397B014
:101F00000746DDE91E980E46144600212C220AA839
:101F10001D46FFF78BFE2323CDE90B76099315951C
:101F2000B9F1000F07D1B8F1000F04D06FF08600AF
:101F300017B0BDE8F08309AB039334230493209BCF
:101F4000102D0593219BCDF82080CDE90639229BE9
:101F50000193239B0293E9D824B1224611AB254477
:101F6000AA4209D1012301AA032103A8FFF746F8D9
:101F7000249B029A1A60DBE712F8011B03F8011B8D
:101F8000EEE72DE9F04397B00746DDE91E980E46CF
:101F9000144600212C220AA81D46FFF747FE2423E1
:101FA000CDE90B7609931595B9F1000F07D1B8F17A
:101FB000000F04D06FF0860017B0BDE8F08309ABC6
:101FC000039334230493209B102D0593219BCDF87C
:101FD0002080CDE90639229B0193239B0293E9D807
:101FE00024B1224611AB2544AA4209D1012301AAFA
:101FF000032103A8FFF71EF8249B029A1A60DBE76F
:1020000012F8011B03F8011BEEE7F0B595B0074687
:102010000E4615460021302208A81C46FFF706FE92
:102020003123079307AB03933423CDE904351A9B7F
:1020300001AA01931B9B0221029303A80123CDE96E
:1020400009760694FFF762F91C9B029A1A6015B094
:10205000F0BD10B592B004463022002106A8FFF76B
:10206000E5FD3D230593236803AA099305AB01937E
:102070003423CDE9023404230493012301A8194633
:10208000FFF794FA12B010BD30B593B004460D4678
:102090003022002106A8FFF7C9FD352305932368E8
:1020A00003AA099305AB01933423CDE90234042339
:1020B0000493012301A819460895FFF797F913B077
:1020C00030BDF0B595B004460F46164600213022CB
:1020D00008A81D46FFF7AAFD3823079323680221AD
:1020E0000B9307AB03933423CDE90436042301AAF1
:1020F000029303A80123ADF8207006950194FFF721
:10210000C9F915B0F0BD70B596B00C460646154637
:10211000002130220AA8FFF789FD3C230993236898
:1021200005AA0D9309AB01933423CDE9023614239C
:10213000CDE904340423CDE906350893022301A830
:102140001946FFF717FA16B070BD00B589B0CDE992
:1021500000010821CDE903130AAB0693042307937A
:102160000023059203211A4602A8CDF808D0FEF7F5
:1021700075FA032808BF6FF0860009B05DF804FB0C
:1021800010B58AB0019202AA06920822079201AA0B
:10219000089204220D9C09920C9ACDE90201CDE926
:1021A00004231CB96FF086000AB010BD0123022180
:1021B00004AA06A8FEF76EFA0328F3D0059B236055
:1021C000F2E77FB50823CDE903320C230593012301
:1021D000CDE9000104AA194602A8CDF808D0FEF7FF
:1021E00075FA032808BF6FF0860007B05DF804FB9E
:1021F0001FB5082303930023CDE900011A460121EE
:1022000002A8CDF808D0FEF77DFA05B05DF804FB12
:102210001FB501AB029304230393002301901A46D8
:10222000012102A8FFF786FA05B05DF804FB7FB52F
:1022300001AB02930423CDE9033201230190059100
:1022400004AA194602A8FFF759FA07B05DF804FB83
:102250008142F8B50546134603D3FFF71EFD284615
:10226000F8BD10441144002BF9D041EA000616F0E5
:10227000010611D1012B23D940EA010212F002021A
:1022800010D19C18032C13D86FF003029C08544300
:102290002344221821441CE011F8012D013B00F8D1
:1022A000012DE0E731F8022D023B20F8022DE1E795
:1022B0008C1854F8047C841844F8047C043AE0E751
:1022C0000022DEE7881B10F8014C901B00F8014C3F
:1022D0000136B342F6D1C2E7000000000000000062
:1022E0000020034BC3E90000C3E90200704700BFB0
:1022F000E85600200229024630B526D12BBB4368A0
:10230000042B22D103681868D2E9022302BB1843C8
:102310001ED1124B9968F1B1012904D1C3E9000023
:10232000C3E9020030BD1A680D4D02F11004C4F378
:1023300009042C59013918342244C2F309021A60E5
:10234000DA689960121BDA60ECE76FF08100E9E768
:102350006FF08500E6E76FF08000E3E7E8560020C5
:10236000E8520020084610B579B9022B0DD1536808
:10237000042B0AD1D368042B07D1054B91689C68C4
:102380001268DB6814600B6010BD6FF08100FBE722
:10239000E8560020012930B522D1012B20D1436815
:1023A000042B1DD15368042B1AD1036814681868D4
:1023B0000E4B9A68824216D900211B680C4D03F11E
:1023C0001002C2F309028142AA5803D10020183238
:1023D000226030BD18331344C3F309030131EEE723
:1023E0006FF08100F5E76FF08000F2E7E85600201B
:1023F000E852002001292DE9F34740F09680002B98
:1024000040F093804368082B40F08F80046801A857
:1024100005F0A6FE002840F08B80DDF804C0BCF17A
:10242000000FC0F28580216811F0030640F0838020
:10243000B1F57A7F00F28280434B01F118059A686A
:10244000F2B11F68D3F80CE0DFF80081CEF58060B0
:10245000A84254D3D3F80480002A64D0DFF8ECA05B
:1024600008F11009C9F309095AF8099008F1180090
:102470004844C0F30900C3E9022E0246C3E90078CC
:102480003348D0E9007E17F101094EF10008C0E998
:1024900000983048C0E9007E0027C0E9027C671E32
:1024A0000C4400F1100C033417F801EFA7420CF8AC
:1024B00001EBF9D100271431475444180121617010
:1024C0000221A1700321B2F5806F10461F4FE17009
:1024D00037D2204C811914F801CB0136C1F3090120
:1024E000AE4207F801C0F5D3D868996805440020CA
:1024F0000131C3E90121DD6002B0BDE8F0876AB1B6
:1025000007F11000C0F3090058F80000013A183034
:102510000744AEEB000EC7F3090797E79646174648
:1025200090461046A7E73846A5E76FF08100E3E73D
:102530006FF08400E0E76FF08500DDE76FF08C005E
:10254000DAE76FF08900D7E7E8560020E85200206C
:10255000E0520020F85600200229F0B54DD1012BA1
:102560004BD14368042B48D10368C468D3F800C03A
:102570008368576803B924B100236FF08500536066
:10258000F0BD1F4B99688C4503D36FF080005460F9
:10259000F6E71B68264619461A4D01F11000C0F3F4
:1025A0000900B445285809D100F118018F424FF0B5
:1025B000000013D250606FF08900E1E71831014448
:1025C000C1F309010136E8E703F11007C7F3090772
:1025D000EF5918333B44C3F309030130B042F3D140
:1025E00016688C4202D300205160C9E7E018C0F39E
:1025F0000900285C30550134F3E76FF08100BFE734
:10260000E8560020E852002008B505F0A9FD002892
:1026100014BF6FF08400002008BD000008B500F072
:1026200027F8B8B90C4804F069FD0C4804F066FDC1
:102630000B4804F063FD0B4804F060FD0A4804F009
:102640005DFD4FF40251094808F026F8BDE8084046
:102650000BF024BD08BD00BF1A5F00002B5F000017
:10266000575F00007D5F00009D5F0000F85A00206A
:1026700008B54FF4BE5200210248FFF7D7FA0020F8
:1026800008BD00BF787B00200023F7B5074601A8EE
:102690000E4615460193FFF7B7FFC8B93368F3B983
:1026A00005B34FF43E7C114A2B600CFB03F4A15898
:1026B0009E46013371B94FF0010E02EB040C42F853
:1026C00004E0019910341444CCE9011733602C6004
:1026D00003B0F0BD082BE8D16FF08400F8E76FF08D
:1026E0008800F5E76FF08600F2E700BF787B0020F6
:1026F0000023F7B50568064601A80193FFF784FF9C
:10270000044620BB013D072D24D84FF43E736B4394
:10271000124FF958FA1801291CD1506801998842C2
:1027200018D11033F81893680021013B042B96BF91
:102730000B4A224632F81320FFF778FA4FF43E7323
:102740005D4300237A19C2E901337B51336020468F
:1027500003B0F0BD6FF08604F9E700BF787B00207E
:10276000A45F00000023F7B5064601A80C461546F5
:102770000193FFF749FFA8B92368013B072B13D842
:102780004FF43E714B430B4AD758D118012F0BD150
:102790008F68B74208D14E6801998E4204D1103338
:1027A00013442B6003B0F0BD00236FF0880023605A
:1027B000F8E700BF787B00202DE9F34115460022A1
:1027C000012904460192084623D1022B21D16368D6
:1027D000342B1ED16B68042B1BD1D5E902782368FA
:1027E0002E681B693146336001AAFFF7BBFF044620
:1027F00058B942463946019805F10C030BF002FA2C
:10280000044610B13046FFF773FF204602B0BDE822
:10281000F0816FF08004F8E7F7B50446184600230E
:102820000229019320D101281ED16368342B1BD1CA
:102830005368042B18D1D4E90267236815681B6913
:1028400029462B6001AAFFF78DFF044648B93A4696
:10285000314601980AF006FA044610B12846FFF7FF
:1028600047FF204603B0F0BD6FF08004F9E72DE983
:10287000FF410446184600230129019329D101286C
:1028800027D15368042B24D16368342B21D12368CA
:102890001568D3E902871B6929462B6001AAFFF757
:1028A000F3FE044688B902AE3146404600F0FCFB18
:1028B000044638B996E806003B4601980AF0BAF992
:1028C000044610B12846FFF713FF204604B0BDE8C8
:1028D000F0816FF08004F8E72DE9FF4104461846C7
:1028E00000230129019329D1012827D15368042B02
:1028F00024D16368342B21D123681568D3E902877A
:102900001B6929462B6001AAFFF7BEFE044688B961
:1029100002AE3146404600F0C7FB044638B996E89F
:1029200006003B4601980AF091F9044610B128468A
:10293000FFF7DEFE204604B0BDE8F0816FF08004B2
:10294000F8E72DE9FF47154600220229039229D115
:10295000022B27D14368342B24D16B68042B21D15F
:10296000D0E90278D5E9029A03682E681B693146DE
:1029700033600120EA6003AAFFF7F4FE044668B959
:102980000C354B4642463946CDE900A503980AF07E
:1029900087F9044610B13046FFF7AAFE204604B07E
:1029A000BDE8F0876FF08004F8E72DE9F3411546A4
:1029B0000022012904460192084623D1022B21D18D
:1029C0006368342B1ED16B68042B1BD1D5E90278C8
:1029D00023682E681B6931463360EA6001AAFFF75D
:1029E000C1FE044650B942463946019805F10C0330
:1029F0000AF070F904463046FFF77AFE204602B02E
:102A0000BDE8F0816FF08004F8E773B50024012978
:102A10000646019418461FD1012B1DD17368342B33
:102A20001AD15368042B17D1336815681B692946DE
:102A30002B6001AAFFF796FE38B901980AF05EF8FC
:102A40000446284624B1FFF753FE204602B070BD6D
:102A5000FFF74EFE0446F8E76FF08004F5E72DE936
:102A6000F0470229144686B01ED1012B1CD14368C1
:102A7000342B19D1D0E90278D2E9009A036804AD69
:102A800029469868DE6800F00FFB50B90434CDE9A0
:102A900002A4CDE900893B4695E8030032460BF0DD
:102AA000DFF806B0BDE8F0876FF08000F9E72DE9A8
:102AB000F0470229144686B01ED1012B1CD1436871
:102AC000342B19D1D0E90278D2E9009A036804AD19
:102AD00029469868DE6800F0E7FA50B90434CDE979
:102AE00002A4CDE900893B4695E8030032460AF08E
:102AF0000DF906B0BDE8F0876FF08000F9E773B517
:102B000000240129009422D1012B20D15368042BE9
:102B10001DD14368342B1AD1016815680B69CE6842
:102B200001936A4603202B6001A9FFF7ADFD04461F
:102B300050B9019B314600982B6009F0F1FA044628
:102B400010B12846FFF7D4FD204602B070BD6FF0EB
:102B50008004F9E7F7B500240229019421D1012B63
:102B60001FD14368342B1CD15368042B19D1D0E9F1
:102B70000267036815681B69294603202B6001AAB8
:102B8000FFF7F0FD044648B93A463146019809F08E
:102B9000E7FA044610B12846FFF7AAFD204603B025
:102BA000F0BD6FF08004F9E72DE9F34115460022EE
:102BB0000129019224D1022B22D14368342B1FD149
:102BC0006B68042B1CD1D5E9027803682E681B6959
:102BD000314633600320EA6001AAFFF7C3FD0446D3
:102BE00050B942463946019805F10C0309F0CCFA78
:102BF00004463046FFF77CFD204602B0BDE8F08178
:102C00006FF08004F8E7F7B500240229019420D181
:102C1000012B1ED14368342B1BD15368042B18D1D0
:102C2000D0E90267036815681B69294603202B60F9
:102C300001AAFFF797FD044640B93A46314601988C
:102C400009F0B3FA04462846FFF752FD204603B0C8
:102C5000F0BD6FF08004F9E737B500240129019435
:102C600020D1012B1ED14368342B1BD15368042B78
:102C700018D1036815681B69294603202B6001AA37
:102C8000FFF770FD38B9019809F03FFA044628466D
:102C900024B1FFF72DFD204603B030BDFFF728FD1E
:102CA0000446F8E76FF08004F5E737B50024012902
:102CB000CDE9004426D1012B24D14368342B21D106
:102CC0005368042B1ED1036815681B696A462946A0
:102CD00003202B60FFF746FD044680B92860294693
:102CE000032001AAFFF7D0FC044640B9DDE900014A
:102CF00009F0C0FA044610B12846FFF7F9FC204657
:102D000003B030BD6FF08004F9E7022973B50546C2
:102D1000144613D1012B11D14368342B0ED1D5E9C0
:102D2000021200260368D868D4E9003544F8046F1D
:102D3000CDE9005409F060FA02B070BD6FF0800078
:102D4000FAE7032913B50ED16BB94368342B0AD1C6
:102D50004369046800938168D0E90323E06809F0BF
:102D60005CFA02B010BD6FF08000FAE72DE9FF4178
:102D700000240129019428D1012B26D15368042B6A
:102D800023D14368342B20D1166803683146D3E938
:102D90000287022001AAFFF777FC044688B902AD3A
:102DA0002946404600F080F9044638B995E8060007
:102DB0003B46019809F0E5FA044610B13046FFF7AA
:102DC00097FC204604B0BDE8F0816FF08004F8E77E
:102DD0002DE9FF410024012901942AD1012B28D19A
:102DE0005368042B25D14368342B22D1036815681E
:102DF000D3E902871B69294602202B6001AAFFF74D
:102E000043FC044688B902AE3146404600F04CF916
:102E1000044638B996E806003B46019809F0BDFA29
:102E2000044610B12846FFF763FC204604B0BDE815
:102E3000F0816FF08004F8E7F7B5044608460021FA
:102E40000228019120D1012B1ED16368342B1BD1A4
:102E50005368042B18D1236815681B69A668E768B6
:102E600029462B6001AAFFF77DFC044648B93A4683
:102E70003146019809F09DFA044610B12846FFF743
:102E800037FC204603B0F0BD6FF08004F9E72DE970
:102E9000F34104461846002301291546019323D126
:102EA000022821D16268342A1ED16A68042A1BD103
:102EB000D5E9027822682E68EB60136931463360E9
:102EC00001AAFFF74FFC044650B942463946019823
:102ED00005F10C0309F07FFA04463046FFF708FCC1
:102EE000204602B0BDE8F0816FF08004F8E7F7B546
:102EF000044608460021022801911FD1012B1DD153
:102F00006368342B1AD15368042B17D1D4E90267B4
:102F1000236815681B6929462B6001AAFFF722FC6C
:102F2000044640B93A463146019809F035FB04465B
:102F30002846FFF7DDFB204603B0F0BD6FF08004AC
:102F4000F9E737B500240129019420D1012B1ED1C6
:102F50004368342B1BD15368042B18D103681568C0
:102F60001B69294602202B6001AAFFF7FBFB38B939
:102F7000019809F091F90446284624B1FFF7B8FBFF
:102F8000204603B030BDFFF7B3FB0446F8E76FF00F
:102F90008004F5E72DE9F0470229144686B01ED1DA
:102FA000012B1CD14368342B19D1D0E90278D2E926
:102FB000009A036804AD29469868DE6800F074F84A
:102FC00050B90434CDE902A4CDE900893B4695E827
:102FD0000300324609F0FAFA06B0BDE8F0876FF058
:102FE0008000F9E72DE9F047032986B01CD1DBB951
:102FF0004368342B18D1D0E90278D0E9049A0568E7
:1030000004AC2146A868EE6800F04EF848B9CDE956
:10301000019ACDF800803B4694E80300324609F05F
:10302000EAFA06B0BDE8F0876FF08000F9E72DE915
:10303000F0418846164607468AB000B3FAB13546D5
:103040006C46282200216846FEF7F0FD0FCC0FC524
:103050000FCC0FC594E8030085E8030000203B88EF
:1030600033807B687360FB6833613B6973617B8885
:103070007380BB68C6E902380AB0BDE8F0816FF022
:103080008000F9E730B561B158B1D0E90123046897
:10309000D0E90405C1E903050020C1E900428B60C5
:1030A00030BD6FF08000FBE7002337B5054601A86F
:1030B0000C460193FFF7A8FA18B924B1019B2560CB
:1030C000636003B030BD6FF08000FAE72DE9F04F88
:1030D0000329844614468FB031D1012B2FD1436888
:1030E000342B2CD1DCE902AB136805680B935368D1
:1030F0000022D5E9020609930DF13008DCF8103002
:103100002F6BDCF81490414662600A93FFF7CCFF06
:1031100090B9099BCDE9029A06930B9B0434CDE943
:1031200004B30A9B0794CDE90073324698E8030084
:1031300005F1200309F05EFE0FB0BDE8F08F6FF0DF
:103140008000F9E72DE9F04F0329844614468FB03B
:1031500031D1012B2FD14368342B2CD1DCE902ABC8
:10316000136805680B9353680022D5E9020609939A
:103170000DF13008DCF810302F6BDCF8149041466C
:1031800062600A93FFF790FF90B9099BCDE9029A1C
:1031900006930B9B0434CDE904B30A9B0794CDE955
:1031A0000073324698E8030005F1200309F0A4FEFD
:1031B0000FB0BDE8F08F6FF08000F9E72DE9FF4117
:1031C0000024012900942AD1012B28D14368342BF3
:1031D00025D1036815681969D3E9028701916A4608
:1031E0002C60052001A9FFF74FFA044698B9019B0E
:1031F00002AE314640462B60FFF756FF044638B911
:1032000096E806003B46009809F09EFF044610B180
:103210002846FFF76DFA204604B0BDE8F0816FF054
:103220008004F8E72DE9FF410024012900942AD108
:10323000012B28D14368342B25D1036815681969FF
:10324000D3E9028701916A462C60052001A9FFF7A6
:103250001BFA044698B9019B02AE314640462B60EA
:10326000FFF722FF044638B996E806003B4600986F
:1032700009F076FF044610B12846FFF739FA2046D8
:1032800004B0BDE8F0816FF08004F8E737B50024A2
:103290000129019420D1012B1ED14368342B1BD16D
:1032A0005368042B18D1036815681B69294605204B
:1032B0002B6001AAFFF756FA38B9019809F09EFE73
:1032C0000446284624B1FFF713FA204603B030BD68
:1032D000FFF70EFA0446F8E76FF08004F5E72DE9F2
:1032E000F0471546002286B0012905922ED1032B06
:1032F0002CD14368342B29D16B68042B26D1D5E916
:103300000478D5E9029A03682E681B693146336058
:103310000520EA606A6105AAFFF724FA044688B925
:1033200005F10C03CDE901A3424639460598CDF8D5
:10333000009005F1140309F0C9FF044610B93046A6
:10334000FFF7D6F9204606B0BDE8F0876FF080049D
:10335000F8E72DE9F341154600220129019225D114
:10336000022B23D14368342B20D16B68042B1DD151
:10337000D5E9027803682E681B6931463360052061
:10338000EA6001AAFFF7EEF9044658B94246394609
:10339000019805F10C030AF0DFFC044610B1304639
:1033A000FFF7A6F9204602B0BDE8F0816FF0800477
:1033B000F8E7F7B500240229019421D1012B1FD190
:1033C0004368342B1CD15368042B19D1D0E9026710
:1033D000036815681B69294605202B6001AAFFF7C1
:1033E000C1F9044648B93A463146019809F0C4FE8D
:1033F000044610B12846FFF77BF9204603B0F0BD24
:103400006FF08004F9E7F7B500240129019421D178
:10341000012B1FD14368342B1CD15368042B19D1C5
:1034200003681568D3E906671B69294605202B60E8
:1034300001AAFFF797F9044648B93A463146019880
:1034400009F0BCFE044610B12846FFF751F92046AA
:1034500003B0F0BD6FF08004F9E72DE9FF47154692
:1034600000220229039228D1022B26D14368342B53
:1034700023D16B68042B20D1D0E90278D5E9029AD8
:1034800003682E681B6931460520336003AAFFF7E5
:1034900069F9044668B90C354B4642463946CDE9D0
:1034A00000A5039809F0E0FE044610B13046FFF78E
:1034B0001FF9204604B0BDE8F0876FF08004F8E7FC
:1034C000F7B500240229019421D1012B1FD14368B3
:1034D000342B1CD15368042B19D1D0E9026703683F
:1034E00015681B69294605202B6001AAFFF73AF9E8
:1034F000044648B93A463146019809F08BFE044625
:1035000010B12846FFF7F4F8204603B0F0BD6FF085
:103510008004F9E72DE9FF471546002202290392AE
:1035200027D1022B25D14368342B22D16B68042B81
:103530001FD1D0E9029AD5E9027803682E681B6989
:1035400031460520336003AAFFF70CF9044660B941
:1035500042463946CDE9009A039805F10C0309F07B
:10356000F1FE04463046FFF7C3F8204604B0BDE83C
:10357000F0876FF08004F8E72DE9F0470229144640
:1035800086B01ED1012B1CD14368342B19D1D0E950
:103590000278D2E9009A036804AD29469868DE688B
:1035A000FFF782FD50B90434CDE902A4CDE90089CA
:1035B0003B4695E80300324609F098F806B0BDE8AE
:1035C000F0876FF08000F9E72DE9F047032986B016
:1035D0001CD1DBB94368342B18D1D0E90278D0E98B
:1035E000049A056804AC2146A868EE68FFF75CFD04
:1035F00048B9CDE9019ACDF800803B4694E8030034
:10360000324609F0CDF806B0BDE8F0876FF08000D3
:10361000F9E72DE9F0470229144686B01ED1012BA7
:103620001CD14368342B19D1D0E90278D2E9009A31
:10363000036804AD29469868DE68FFF735FD50B988
:103640000434CDE902A4CDE900893B4695E80300A6
:10365000324609F0E7F806B0BDE8F0876FF0800069
:10366000F9E72DE9F047032986B01CD1DBB943689F
:10367000342B18D1D0E90278D0E9049A056804AC5B
:103680002146A868EE68FFF70FFD48B9CDE9019A19
:10369000CDF800803B4694E80300324609F008F973
:1036A00006B0BDE8F0876FF08000F9E72DE9F04F34
:1036B0000329144697B047D1012B45D14368342BD9
:1036C00042D1D0E90283D4E900B6079303690268C6
:1036D00008934369D2E90297002128220CA80AAD79
:1036E0000993FEF7A3FA29464846FFF7DDFC40BBE5
:1036F00095E803000CAA08F0DBFA10BB0CA8BDF893
:1037000030A0BDF832900AF0E9FC44F201012AF43D
:1037100040528A4204D109F10703B6EBD30F16D306
:10372000099B04340293089BCDE904640193079B31
:10373000CDF80CB000933A4695E80300434609F0F3
:10374000CBF817B0BDE8F08F6FF08000F9E76FF0AD
:103750008900F6E72DE9F04F032914468BB025D1F7
:10376000012B23D14368342B20D1D0E90278D0E952
:10377000049AD4E900B3026808AD29469068D66877
:103780000793FFF791FC70B9079BCDE9019ACDE94A
:1037900003B304340594CDF800803B4695E803005C
:1037A000324609F027F90BB0BDE8F08F6FF08000CA
:1037B000F9E7000073B5044600200129019024D1E7
:1037C000012B22D1506804281FD16368342B1CD1EF
:1037D00023681568D3E9036329462B6001AAFEF725
:1037E00053FF044620B90A4B01989E4203D106605C
:1037F000204602B070BD31460AF028F90446002880
:10380000F6D02846FEF774FFF2E76FF08004EFE78A
:10381000000F00B00129F7B5044626D1022B24D1B0
:103820004368342B21D15368042B1ED1D06804285F
:103830001BD10027236815681B69966801972946E4
:103840002B6001AAFEF78EFF044618B137602046B0
:1038500003B0F0BD3146019809F0FAFE0446002895
:10386000F5D02846FEF744FFF1E76FF08004EEE75D
:10387000012973B504461ED1EBB9416834291AD128
:103880005068042817D12168156801930B694E69A7
:1038900001AA29462B60FEF765FF044640B9314670
:1038A000019809F0DEFE044610B12846FEF720FF1D
:1038B000204602B070BD6FF08004F9E702292DE9BF
:1038C000F74F1E4654D1012B52D14368342B4FD1B0
:1038D000D2F80480B8F1040F4AD1D0E902AB1768DE
:1038E000002203680092B3F804901B696A463946C7
:1038F00040463B60FEF736FF044640BB009D1E4B32
:103900002A689A422AD140F20123994505D06FF0E6
:1039100086043846FEF7ECFE19E001A8FEF774FEB7
:1039200004460028F5D10BF10409494630461CF045
:10393000FDFC686278B1424601A9FEF7AEF9686AFB
:103940005A4651460430FEF7A8F9C5F8289020469B
:1039500003B0BDE8F08F6FF08C04DAE75B465246A7
:10396000494628460AF091F804460028EFD0D0E7EF
:103970006FF08004EBE700BF000F00B00129F7B53E
:10398000044622D1012B20D14368342B1DD150682D
:1039900004281AD1D2E9026715680022236801922F
:1039A0001B6929462B6001AAFEF7DCFE044648B9D4
:1039B0003A463146019809F063FE044610B12846A4
:1039C000FEF796FE204603B0F0BD6FF08004F9E7E5
:1039D00001292DE9FF4104462CD1012B2AD143684E
:1039E000342B27D15068042824D11568002223687D
:1039F0000192D3F808809F881B6929462B6001AA91
:103A0000FEF7B0FE044688B902AE31464046FFF7E5
:103A10004BFB044650B996E80C00394601980AF071
:103A20003DF8044610B12846FEF762FE204604B079
:103A3000BDE8F0816FF08004F8E700002DE9F04167
:103A4000022990B05AD1022B58D14368342B55D15A
:103A5000C368142B52D15368042B4FD1D568042D61
:103A60004CD10021D0F8008016688768946806A8B9
:103A700028220291FEF7DAF8D8F8103031462846AD
:103A8000336002AAFEF76EFE48BB03A8FEF7BCFD3A
:103A900028BB3846039906AAFFF7C9FAF8B9029875
:103AA000184B02689A421DD1BDF81A300733B3F59E
:103AB000027F4FEAD3061BD2002300F16C05CDE94B
:103AC00000561A46D0E9090105F0BEF998B9324608
:103AD000294604AB06A808F044FA049B236010B002
:103AE000BDE8F081014604AA06A809F02DFFF4E71D
:103AF0006FF08C00F1E76FF09200EEE76FF080005E
:103B0000EDE700BF000F00B0012937B5044637D1FB
:103B1000012B35D14368342B32D1506804282FD182
:103B20002368002415681B692946019401AA2B60AB
:103B3000FEF718FE014600BB019C134B22689A4217
:103B400012D1606A28B1A26AFEF770F8606A1CF0B0
:103B5000F3FB4FF43A7200212046FEF767F828463F
:103B6000FEF7C6FD044608E0204609F00FFC0446B7
:103B70000028F4D02846FEF7BBFD204603B030BD38
:103B80006FF08004F9E700BF000F00B02DE9F047A7
:103B90000229044686B030D1012B2ED14368342B44
:103BA0002BD15068042828D1D4E902891568002255
:103BB00023680392D3F808A09F881B6929462B60CD
:103BC00003AAFEF7CFFD044698B904AE314650462D
:103BD000FFF76AFA044660B9CDE90089394696E8EC
:103BE0000C00039809F08CFF044610B12846FEF73C
:103BF0007FFD204606B0BDE8F0876FF08004F8E74F
:103C00002DE9F0470229144686B01ED1012B1CD1A4
:103C10004368342B19D1D0E9027AD2E900890368CC
:103C200004AD29469868DE68FFF73EFA50B90434BF
:103C3000CDE90294CDE900A83B4695E80600304660
:103C40000AF0DFF806B0BDE8F0876FF08000F9E712
:103C5000F0B503298FB029D1012B27D14368342B2C
:103C600024D1C368142B21D15368042B1ED1D0E971
:103C70000456876814680021282204A8FDF7D6FF9F
:103C8000002301A80193FEF7BFFC68B938460199EB
:103C900004AAFFF7CCF938B902AB3246294604A88A
:103CA00008F05FF9029B23600FB0F0BD6FF0800059
:103CB000FAE730B5022985B020D1012B1ED1436827
:103CC000342B1BD1C368042B18D15368042B15D196
:103CD000836801A81D68002314680193FEF794FC13
:103CE00050B9019B0295039302AA92E803000AF0DF
:103CF000D4FF08B9029B236005B030BD6FF080008F
:103D0000FAE701291FB514D19BB94268342A10D1B2
:103D1000026801A894680193FEF776FC38B9019B0C
:103D20000294039304AB13E903000AF0D4FF04B038
:103D300010BD6FF08000FAE701291FB514D19BB9BF
:103D40004268342A10D1026801A894680193FEF7F2
:103D50005BFC38B9019B0294039304AB13E90300A5
:103D600007F07BFF04B010BD6FF08000FAE730B5BC
:103D700001298FB024D1012B22D14368342B1FD1CC
:103D80005368142B1CD1036814680021282204A84E
:103D90009D68FDF74BFF002301A80193FEF734FC5B
:103DA00060B9019B2846194604AA0295039307F0BF
:103DB0007FFF18B9214604A8FFF764F90FB030BDA2
:103DC0006FF08000FAE710B501298CB020D1012BEB
:103DD0001ED14368342B1BD15368142B18D114689F
:103DE0000021282202A8FDF721FF01A8FEF70CFC04
:103DF00060B92046019902AAFFF719F930B902A863
:103E00000AF06CF9214602A8FFF73CF90CB010BD8E
:103E10006FF08000FAE7F0B50129144687B01CD195
:103E2000012B1AD14368342B17D1D2E9005603680D
:103E300003A89F6800230393FEF7E6FB58B9039B92
:103E4000043405930497009406A9334611E903004E
:103E50002A4607F0D8FF07B0F0BD6FF08000FAE700
:103E6000F0B50129144687B01CD1012B1AD1436843
:103E7000342B17D1D2E90056036803A89F680023AA
:103E80000393FEF7C1FB58B9039B043405930497D1
:103E9000009406A9334611E903002A4608F026F8E3
:103EA00007B0F0BD6FF08000FAE701291FB514D10B
:103EB0009BB94268342A10D1026801A89468019322
:103EC000FEF7A2FB38B9019B0294039304AB13E9FC
:103ED00003000AF01DFF04B010BD6FF08000FAE788
:103EE00070B5022990B02DD1012B2BD14368342B12
:103EF00028D15368042B25D1C368142B22D1036821
:103F0000146886682822002106A89D68FDF78EFEA9
:103F1000002301A80193FEF777FB88B93046019989
:103F200006AAFFF784F858B9019B2846059305991E
:103F300002AB06AA049508F067F808B9029B236053
:103F400010B070BD6FF08000FAE730B502298FB075
:103F500026D1012B24D14368342B21D1C368142BE3
:103F60001ED15368042B1BD11468856828220021B8
:103F700004A8FDF75BFE002301A80193FEF744FBB4
:103F800060B92846019904AAFFF751F830B902A98F
:103F900004A809F0C9FF08B9029B23600FB030BD27
:103FA0006FF08000FAE7012908D1012B06D14368A0
:103FB000342B03D1D2E9000109F008BE6FF0800074
:103FC000704700F0ABB900002DE9F7431B4C884661
:103FD00066881968074691461D46264469B1042241
:103FE0000DEB0200FDF759FEBDF806102C680431F8
:103FF0000C44A64203D8002017E00434F9E7042259
:1040000021460DEB0200FDF748FEBDF80430C3F376
:104010008512BA420CD1012003F03F0388F800302A
:10402000BDF806302C60A9F8003003B0BDE8F0837D
:10403000BDF8063004331C44DBE700BF3893002092
:1040400000232DE9F34105460E46144642F21608B8
:104050000B4F13603B8843450FD123463246002067
:104060000DF10701FFF7B0FF012803D19DF80730DC
:10407000AB42EFD102B0BDE8F0814FF0FF30F9E77D
:10408000389300202DE9F04FCDB007460D46164677
:1040900000F0AEF9044668B90246014600956FF09B
:1040A000060312A800F03EFA054630B1012800F0E0
:1040B0001B81052400F0E4F912E13A468B4912A86D
:1040C00000F0A5FA284607AA06A9CDE908550795E4
:1040D000FFF7B6FF012840F0CE80079B043308931A
:1040E000BDF81830824908AA12A8099300F08FFA87
:1040F0000AA800F0DDF904460028DBD17D4912A8AA
:104100000AAA00F084FA20230AA907A8079304F05A
:104110008CFF002840F0B4800AAB0893079B7649D7
:1041200008AA12A8099300F072FA0AA800F0B3FCDA
:1041300004460028BED10A9B70491A46039312A870
:10414000DB1700F055FA02200AAA06A90A94FFF725
:1041500077FF012840F0A480BDF818200A9B022AAE
:1041600003F1040100F09280042A00F09580012AF6
:104170009FD11B790893089A0023614912A800F087
:1041800037FA12A800F033FA4FF0000A07464FF052
:10419000FF39DFF870B1DFF8708142F21603BBF827
:1041A0000020CDF820A09A426AD108AB284607AA81
:1041B00006A9FFF709FF431C62D0012817D101347B
:1041C000012C08D1384642464B4626F07AFF04219E
:1041D000384626F0AEFF089ABDF81C100432CDE92F
:1041E0000A210AAB09210CCB384626F07BFF0135AA
:1041F000EDB2072DD1D1002C56D000220421384633
:1042000026F0B7FF20250AAC214607A8079504F041
:10421000D7FE00287FF44DAF079B0DEB05023B490D
:1042200012A80993089400F006FA214607A80795FA
:1042300004F0DEFE054600287FF43BAF079B3449BF
:1042400008AA12A80993089400F0F5F91223012096
:1042500007AA0DF11601CDE9085506930795FFF75A
:10426000EFFE012827D0214606A804F0EFFE38B95A
:10427000069B089424E020200AA904F0D1FE08B18E
:10428000032417E70AAB089320232BE707A8FDF7C1
:1042900004FDBDF81C306DE708A8FDF7FEFC6AE7D9
:1042A00004F07AFE024667E701220023194912A8AA
:1042B00000F09EF9A6E7079B04330893BDF816307B
:1042C000154912A808AA099300F0B5F9314612A8B9
:1042D00000F065F908B10128E9E600F0D1F80446DC
:1042E00020464DB0BDE8F08F0224E3E600DBFEFF80
:1042F00004DBFEFFFFDAFEFF05DBFEFF07DBFEFF50
:1043000006DBFEFF3893002002DBFEFFFEDAFEFF35
:1043100008DBFEFF01DBFEFF03DBFEFF08B54FF409
:1043200000720649012000F0BEFB052896BF044B31
:104330006FF0830033F9100008BD00BF38930020F0
:10434000AE5F000010B51446036886B01268009393
:10435000436802926268402B0193039203D023F0DA
:104360001003202B14D19AB1684604AA02A9FFF7C2
:1043700089FE40B9049B2360059B6360054B33F9BC
:10438000100006B010BD0528F8D96FF08300F8E7DB
:104390000420F3E7AE5F0000002110B5036886B08B
:1043A0001B680291CDE900136FF000411468526858
:1043B0000391032A17D9402B03D023F01003202B9D
:1043C00011D1684604AA02A9FFF75CFE30B9059B2B
:1043D0002360064B33F9100006B010BD0528F8D94C
:1043E0006FF08300F8E70420F3E700BFAE5F000042
:1043F00030B5A7B01822002108A8FDF717FC00214E
:104400001B4D142203A80291FDF710FC2B681BB171
:104410000524204627B030BD60210DF1070308AA0E
:104420000EA804F02BFD04460028F1D108990029BC
:10443000EED04FF480520F4B03A8CDE906239DF830
:104440000730099A43F4E243ADF80C3002ABFDF7B4
:1044500066FC0028DCD1084B02981A682860002A04
:10446000D7D141220549FDF7AAFC0028D1D0CFE7DA
:104470003C95002009060006849500204095002008
:1044800010B5054C206808B9052010BDFDF767FC84
:104490000028F9D12060F8E73C950020034B1B6809
:1044A00013B1036000207047052070473C95002041
:1044B00073B5174D04462B680BBB164E019333683A
:1044C00013B9032002B070BD134901A8FDF795FC94
:1044D0000028F6D13268114901A8FDF7ABFC00288D
:1044E000EFD10F4E2B462022711C01A8FDF7C1FC15
:1044F0000028E6D1012333702B6801332B602CB1E7
:10450000074B002023602B686360DBE70520D9E7B9
:10451000AC95002084950020090000024095002001
:10452000889500202DE9F3410E4604461F4600F110
:10453000A008C0E92612F60F482200214046089D37
:10454000FDF774FBC4F8C070C4F8D86001A8FFF789
:10455000A5FF10BB95E80600022384F8C830019B34
:10456000C4E93700C4E93430204626F094FD2146E2
:10457000404600F074F8054628B103280BD01928EE
:1045800014BF032501250521204626F0D2FD28462B
:1045900002B0BDE8F0810425F5E70E25F7E773B515
:1045A00004460D460022052126F0E3FD214604F1D4
:1045B000A00000F0C7F840B1032814D0192814BF98
:1045C00003230123184602B070BD6E4620463146D3
:1045D00026F00DFE01280346F4D030B996E803001A
:1045E00085E80300EEE70423ECE70223EAE77047DF
:1045F00070B5044616461D460A46CB1726F061FDE7
:1046000032462B462046BDE8704026F05ABD73B5B1
:10461000D2E9006504460A46CB1726F052FD022176
:104620002046CDE9006502AB13E90C0002B0BDE8FD
:10463000704026F057BD73B5D2E9006504460A46BE
:10464000CB1726F03EFD03212046CDE9006502ABE5
:1046500013E90C0002B0BDE8704026F043BDF0B590
:104660000446ABB0006A0E4600F0E0F8002867D0C0
:10467000A36B9A0704D412220023304626F056FD7D
:104680000421304626F055FD182304AD1A46214674
:104690002846276A0193009426F0FDFC0521284650
:1046A00026F047FD01220023284626F00AFD3A465F
:1046B0002846FB1726F005FD05212846002226F096
:1046C00058FD284602A926F092FD90BBDDE9023292
:1046D000C4E9063283B31146184685E80300022177
:1046E00095E80C00304626F0FDFCA36BDB0725D4D3
:1046F000D4E90F740521304626F01BFD6CB167B17B
:1047000004220023304626F0DCFCCDE904740221AB
:1047100095E80C00304626F0E5FC002205213046E5
:1047200026F027FD3046022126F003FD00202BB0A5
:10473000F0BD00221346CBE70220F8E71C20F6E785
:104740000120F4E72DE9F041ACB01CAB0C93402301
:104750000E460D9314AB0E93202310AD04462A464B
:10476000022130460F9326F004FDB37B0BB10123E9
:104770003374337C012B55D0002B55D13268D4F8DB
:1047800020C0FAB9D4E90C010BAB8DE803000A9202
:1047900002936046D4E90A2300F008F90546DDE9F2
:1047A0000A0112AB83E8030002210CCB304626F04D
:1047B00099FC00220421304626F0DBFC28462CB070
:1047C000BDE8F0810DF1200802AFCDF81080DDE9E1
:1047D0000E0187E8030095E803008DE80300D4E9A3
:1047E0000612604600F028F805460028E6D1A36BC3
:1047F000DB07D4D4DDE90C010AAB069304AB83E8F4
:10480000030098E80300D4E90A2387E80300D4E909
:104810000C018DE80300206A00F0A2F80028BED049
:104820000546CBE71925C9E71825C7E7C31D0CBF07
:104830006FF00F0000207047F0B5BDB01E460AAB08
:104840006D460293302385E80600394C1A460299DA
:10485000074616A8039326F01EFC042116A826F08E
:1048600068FC2046FBF756FECDE9084008AC032162
:1048700094E80C0016A826F035FC95E80300002506
:1048800084E80300022194E80C0016A826F02AFC14
:10489000CDE90855022194E80C0016A826F022FC68
:1048A000002E37D1CDE90866022194E80C0016A845
:1048B00026F018FC0125042116A8002226F059FC38
:1048C00004A916A826F093FC00282FD107370CBFA7
:1048D0006FF00F01002106A800F096F8C0B9059B03
:1048E0005B1B2ABF049ACDE90800CDE9082306A87E
:1048F00094E8060000F0A6F842AB93E8060006A88C
:1049000000F0A0F8DDE94523449906A800F0A7F8D7
:104910003DB0F0BD42AB93E8030084E803000B21F7
:1049200094E80C0016A826F0DDFBC4E71520EFE79D
:10493000BA5F000098B110F1950F0BD010F1860FFF
:104940000AD010F18D0F09D010F1970F0CBF122073
:10495000172070470D2070470120704710207047C6
:1049600082B030B587B00AA9073081E80C00129DEB
:1049700005D0012007B0BDE8304002B0704705AB5C
:10498000109C0293119B0849CDE90043DDE90E23F9
:104990000C98FDF73AFBFFF7CDFF0028EAD1059B05
:1049A0002C606B60E6E700BF0906000682B010B518
:1049B00086B008A981E80C00124A52F8043B2BB9D2
:1049C000012006B0BDE8104002B070479842F4D113
:1049D0000A9C0021142201A8FDF728F9204601A90C
:1049E000FDF7D4F9FFF7A6FF08B10020E9E7BDF80D
:1049F0000620D308520718BF01330C9A5B001360DE
:104A0000DFE700BFC85F0000002310B503604FF66A
:104A1000FF730B4A044611F1100F0CBF11461946E3
:104A2000FDF7EBF9606038B110F1860F05D010F199
:104A30008A0F0CBF0520042010BD0320FCE700BF37
:104A40000900000213B502AB03E9060043680446FF
:104A50001BB911B1FDF7EEF9606002B010BD73B57E
:104A600002AD05E906001D46436804462BB92B1D1F
:104A70000E46FDF7FEF960602E60606838B110F1F7
:104A8000860F06D010F18A0F0CBF0520042002B05B
:104A900070BD0320FBE708B503F062FB002814BFDC
:104AA0000320002008BD08B5FDF737F9003818BF0E
:104AB000012008BDF0B5154A85B012781AB3032954
:104AC00003D06FF0800005B0F0BD002BF9D1436832
:104AD000082BF6D14369042BF3D103688268D3E92C
:104AE00000450B4B1A60D0E9036303A81F6803F06D
:104AF00037FB0028E5D122462B46CDE90067039815
:104B000000F04AF9DFE76FF08300DCE7B0950020A2
:104B1000B49500202DE9F0411446174A86B012786A
:104B200032B3022904D06FF0800006B0BDE8F081F6
:104B3000012BF8D14368082BF5D1C368042BF2D1BF
:104B400003682268D3E90067836805A81D680B4BDA
:104B500054F8048F1A6003F003FB0028E3D13246B7
:104B60003B46CDE901840598009500F071F9DCE73A
:104B70006FF08300D9E700BFB0950020B495002006
:104B8000DFB51446114A1278EAB1012903D06FF05B
:104B9000800004B0D0BD012BF9D14368082BF6D1B9
:104BA00063680C2BF3D1036803A82468D3E900677A
:104BB00003F0D6FA0028EAD132463B460398009427
:104BC00000F09AF9E5E76FF08300E2E7B095002086
:104BD00037B50F4A1278C2B1012903D06FF08000B7
:104BE00003B030BD002BF9D14368082BF6D1036820
:104BF00001A8D3E9004503F0B3FA0028EED122461C
:104C00002B46019800F09EF9EAE76FF08300E7E792
:104C1000B095002008B500F03BF818B90122034B0D
:104C20001A7008BD6FF08300FBE700BFB09500204D
:104C300038B50C46044D0A462968FDF72EF82B6856
:104C4000204623442B6038BDB495002038B50C466F
:104C5000044D0A4601462868FDF71FF829682144DB
:104C6000296038BDB49500201FB5084CCDE900235C
:104C7000039003A904222046FDF70FF80822694695
:104C8000201DFDF70AF804B010BD00BFE897002012
:104C900070B5394B86B09E6AB0470369042B03D0C8
:104CA0006FF0800006B070BDB047344C836823813C
:104CB000B047037D6846237504F04CF90028EFD116
:104CC000009B9DF80820636023895343019A9BB29F
:104CD0006381B2FBF3F3A381B0470369042BDFD1F7
:104CE000B047274D83682B81B047037D03A82B7500
:104CF00004F022F90028D3D1039B9DF814206B60A7
:104D00002B8921465343049A9BB26B81B2FBF3F388
:104D10001C481D4AAB8100F0EBF90028C2D11948AC
:104D200000F026FAC8B9184A1549184800F0E0F909
:104D30000028B7D1154800F01BFA0028B2D014485B
:104D400002F0DCF9114800F02DFA0028AAD10F4832
:104D500006B0BDE8704000F00BBA0E4802F0CEF984
:104D6000084800F01FFA00289CD1064800F000FA1D
:104D7000002897D1D7E700BF20B60200A05200203C
:104D8000B8520020B89700201C600000D097002087
:104D9000F65F0000D05F00002DE9F74F52EA0301F3
:104DA0000446DDE90C5842D038F0070742D1FFF73E
:104DB0005BFF224E224B2349B4F5807F18BF1E466D
:104DC000214C3046224600F0EFF928B9A368DB07F2
:104DD00005D56FF0840027E010F18C0F24D148F442
:104DE0004033DFF86490DFF86480DFF858A0656036
:104DF000A360B5F5007FAB4628BF4FF4007B134896
:104E00005946FFF715FF5B464A4651463046CDE905
:104E1000007800F0ECF938B9A368B5EB0B0523F482
:104E20004033A3605F44E4D103B0BDE8F08F6FF07E
:104E30008600F9E76FF08500F6E700BFD097002005
:104E4000B8970020E8970020F4970020B89500203C
:104E50002DE9F74F52EA030104460C9EDDF8389025
:104E60003DD0FFF701FF1F4F1F4B2049B4F5807F56
:104E700018BF1F461E4C3846224600F095F90546DD
:104E800000BB2468B4422AD30D9BA41B9C4228BFBC
:104E90001C46DFF86080DFF854A0C9F80040B4F584
:104EA000007FA34628BF4FF4007B33465A46514645
:104EB0003846CDF8008000F0A3FA054630B1002353
:104EC000C9F80030284603B0BDE8F08F5946404687
:104ED000FFF7BCFEB4EB0B045E44E0D1F2E76FF0E9
:104EE0008605EFE7D0970020B8970020E8970020CC
:104EF000F4970020B895002070B552EA03010646E9
:104F0000049C13D0FFF7B0FE0A4D0B480B4B2A460A
:104F1000B6F5807F18BF1846094900F045F920B959
:104F20002B68C4E90033AB68A36070BD6FF08600E6
:104F3000FBE700BFF4970020D0970020B89700202F
:104F4000E897002052EA030138B5054617D0FFF76D
:104F50008BFE0E4C0E4B0F49B5F5807F18BF1C46DB
:104F60000D4D20462A4600F01FF950B9AB68DB070B
:104F700008D42046BDE83840064900F032BA6FF048
:104F8000860038BD6FF08400FBE700BFD09700209B
:104F9000B8970020E8970020F497002008B5036830
:104FA00000209B689847002818BF6FF0910008BD4B
:104FB00070B50E461146426845891344026806FBE7
:104FC00005305469049AA047002818BF6FF091007B
:104FD00070BD70B50E46114642684589134402689B
:104FE00006FB05309469049AA047002818BF6FF0AB
:104FF000910070BD0020704770B504460E46002534
:105000006389AB4201D8002070BD606806FB0300D5
:1050100023682844DB69984710B923891D44EFE7CA
:105020006FF09100F0E72DE9F04F03688BB002AA12
:1050300004460E465D8900F00DFC30BB07A800F069
:10504000EBFE0146002850D1DDE9027A202202A8B9
:10505000DDF81490FCF7EAFD3146204602AA00F084
:1050600032FD90B98346804623685B8A5B450FD842
:105070002B464A4639462046CDE900A800F0EFF914
:1050800018B957BB204600F0D0FB0BB0BDE8F08F3D
:10509000B3451FD05946204602AA00F0DBFB00288A
:1050A000F3D1029BBB420ED107A800F0B5FE50B968
:1050B000039B534507D99D4228BF1D46A3EB090317
:1050C0000393059B98445946204602AA00F0FBFC36
:1050D0000028DAD10BF1010BC6E7204600F037FEBD
:1050E0000028CFD06FF08300CFE76FF08B00CCE7C4
:1050F000F8B50D4617460646B8B3B1B3AAB38989C9
:10510000B5F810C001296A896B8A28D9032929D0EA
:105110000024022907D1A2F11400A0EB431084451A
:1051200088BF6FF08604944588BF6FF0860402291B
:1051300008BF01214FF00C004FEA431318BF02399A
:10514000083300FB01339A420FD334B918222146A9
:105150003046FCF76BFDC6E900572046F8BD6FF0FE
:105160008604D6E76FF08604DDE76FF08604F4E787
:1051700037B5054600F093FD044658B94FF08071ED
:10518000284601AA00F0C2FB38B928460199FFF76A
:105190004AFF0446204603B030BD10F18C0F18BF03
:1051A0000446F7E700F09FBC70B58AB0144601AA28
:1051B00006460D4600F089FB18B16FF08B000AB06F
:1051C00070BD3046019902AA00F044FB0028F6D1D8
:1051D0000C22284607A9FCF750FD0028EDD1059BBD
:1051E0006360049B2360BDF81830A360E7E72DE9F6
:1051F000F0411E464FF6FF7392B0CDE90533936838
:10520000044613F07F4F88461546189F04D06FF070
:10521000860012B0BDE8F0810368DA896B68013B53
:105220001344524213406B6005AA00F04EFB002865
:1052300040F08F80204605990AAA00F00BFB10B1C0
:105240006FF08B00E5E7AB6805999A0306D50D9AD8
:10525000D5F804C062456FD10C900E9306914FF6BD
:10526000FF73069A9A427DD121686B68098A8B4246
:10527000CDD807A903910AA9029106A90191A968AD
:105280002046009105998A1A18BF0122414600F074
:10529000B5FB0028BDD1002E6CD120460A9907AA83
:1052A00000F06CFD002851D1069920460AAA00F0B2
:1052B0000AFC0146002849D1DDE905539D4228BF7B
:1052C0001D4620462A4600F0D4FC00283ED14FF669
:1052D000FF72059B93420FD0069A93420CD09A42DC
:1052E00038BF1A462046691C00F0C3FC70BBDDE9DC
:1052F00005539D4238BF1D46236820465A8A691CC3
:1053000000F0B7FC10BB0A9B002B64D1002E62D0CA
:10531000204600F08AFA00287FF47BAF4FF6FF7337
:10532000059999423FF475AF069B99423FF471AFDE
:105330002046FFF778FE6CE70E9B204643F0807313
:105340000AAA0E9300F0BFFB002888D06FF08300FC
:105350005FE710F18C0F7FF45CAFAB68DB037FF588
:105360006FAF7CE720460A9907AA00F0EDFA002803
:1053700091D0EBE72368DA89531E3B42E6D10C9BC0
:10538000751E15449F42C2F1000205EA0205DDD8F0
:105390002A4639460D9800F033FD0028D6D1199BD6
:1053A0002046CDE900530AAA3B4607A900F0CCF8F5
:1053B0000028CBD10C9B37440A999F422046079D79
:1053C00088BF0C9700F02CFA294607900A9A2046CD
:1053D00000F076FB61E7204600F0B9FC002897D08A
:1053E000B4E713B501AA044600F06FFA28B92046C5
:1053F0000199FFF718FE02B010BD6FF08B00FAE7BD
:10540000F0B58DB0164603AA04460F461D4600F0BF
:105410005CFA18B16FF08B000DB0F0BD2046039917
:1054200004AA00F017FAB8B90C22384609A9FCF70B
:1054300024FC0028EED132462946069800F0E0FC14
:105440000028E9D1129B2A4600932046334604A93E
:1054500000F059F80028DFD06FF08300DCE72DE979
:10546000F04786B01646DDE90E8A03AA05460F46C8
:10547000994600F069FA044660BB059A3946324401
:105480002846059200F0CCF90646BAF1000F15D176
:10549000049A424522D33A462846039900F010FB6D
:1054A0003946284603AA039600F068FC044608B370
:1054B0003A463146284600F003FB0BE001464246DF
:1054C0002846CDE9009A039B00F0A5FB0028DFD019
:1054D0006FF08304204606B0BDE8F087A8EB020316
:1054E000CDE9002331462846039B00F094FB0028B9
:1054F000D1D0EDE7002FEDD06B683146DB6828682E
:1055000098470446E6E72DE9FF410D46164609682F
:1055100001AA04461F46DDF8288000F015FA70B98C
:1055200001994B1C0BD062686B680A97556842461C
:10553000AC462068334404B0BDE8F04160476FF0EA
:10554000830004B0BDE8F0812DE9F3471546DDE99D
:105550000AA90F4698461168044600F061F96B6885
:105560007A689844A8EB020306460146CDE9002379
:1055700020463B6800F04FFB20BB6368CDF800A0DD
:10558000D3F808A04A46434631462068D047C8B9F8
:10559000EB686A68B9681A44236820465B895B1A1D
:1055A0009B1ACDE9002331463B6800F034FB48B933
:1055B0002B683BB1314663682068DB6802B0BDE808
:1055C000F047184702B0BDE8F08713B50C2404FB80
:1055D00001F3416800948C68083341690068A04772
:1055E00002B010BD436810B5416904461B690068EC
:1055F000984750B923689A89022A06D96268A16837
:105600001846BDE810401269104710BD8089022875
:1056100014BF03380020704708B5FFF7F7FF0C23CD
:1056200000FB033303EB4110083008BD2DE9F04FB8
:10563000002405460F46904626464FF00C098BB0D5
:10564000D5F800A05046FFF7E1FF013086420ED3A7
:1056500000264FF02009D5F800A0BAF812309E427B
:105660001DD3002088F800400BB0BDE8F08F09FB87
:1056700006F36A68CDF80090D2F804B03946504677
:10568000083302AAD8470028EED102AB13F8012B49
:1056900001300C2884EA0204F8D10136D0E7314603
:1056A0005046FFF7B9FF6A68CDF800900346D2F87C
:1056B00004B03946504602AAD8470028D4D102ABDC
:1056C00013F8012B0130202884EA0204F8D10136B6
:1056D000C1E737B5837B01685A1CD2B28273097D5A
:1056E00004469142416904BF02338373012900F1EA
:1056F0000D020DD8FFF79AFF40B9082263680092A7
:105700009D6861690346A2182068A84703B030BDB0
:105710006FF08600FAE713B50C4611462279012A8C
:1057200009D0022A04D10368A2791B7D9A420CD1C8
:105730006FF0830007E0036862791B7D9A420CBF1B
:105740006FF08300002002B010BD01290DD80DF1CB
:105750000702FFF76BFF0028F5D162799DF807304B
:105760009A4218BF6FF09100EDE76FF08600EAE70C
:105770000822F0B5436887B000925C6800236A4451
:10578000054619460068A0470246002836D0002684
:105790004FF0FF3408226B6800925F6801210023FC
:1057A000286804AAB847002835D10122284604A950
:1057B000FFF7B1FF78BB66B32B689DF816201B7D01
:1057C0009DF80E10B3FA83F35B099A4203D1501C83
:1057D000C0B2814209D1994203D14B1CDBB29A423B
:1057E00015D191422CBF0026012634462C61B4FA13
:1057F00084F4002064096C6107B0F0BD284602A95A
:10580000FFF789FF04460028C1D10126C2E7002620
:10581000EBE70124EAE7002EE8D16FF08300EBE725
:1058200009B9406970478068704710B50446FFF7B2
:1058300050FF70B963686169DB682068984740B9B8
:10584000D4E904232046C4E90432BDE81040FFF740
:10585000C9BE10BDF7B5066805463046FFF7DCFE49
:1058600003462020696800904F6830462969144635
:10587000B847064640B92868FFF7C8FE23680130DC
:10588000834204D36FF09706304603B0F0BD04F1B5
:10589000140000F0C1FA0028F6D12D68E2682B8AC6
:1058A0009A42EFD8A3689A42ECD3D4E900372BB9D7
:1058B0002846698AFFF7B0FE8742E3D339466889F4
:1058C00000F09EFA0028DFD0DCE7F0B505460E4672
:1058D0001746002489B02B685B8AA34202D86FF078
:1058E0008B000CE06A4621462846FFF7B3FF50B90B
:1058F0000C22314605A8FCF7C0F910B93C6009B08C
:10590000F0BD0134E7E76FF08300F8E7F0B5054636
:105910000E461746002489B02B685B8AA34202D842
:105920006FF08B0009E06A4621462846FFF792FF98
:1059300038B9049B1E4202D03C6009B0F0BD01346E
:10594000EAE76FF08300F8E773B506460C2000FB2A
:1059500001F3716800904C6830683169083315466E
:10596000A0470446B8B9336829689A89914210D291
:10597000D5E90112588900F043FA044648B92B686A
:10598000012B03D83068418AFFF746FE6B688342DB
:1059900001D06FF09704204602B070BDF7B50C2619
:1059A00006FB01F3416800964F680833016905461C
:1059B00000681446B8470346E8B92B6821689A89FD
:1059C000914216D2D4E90112588900F019FA03461F
:1059D00078B92268012A09D82A681046FFF716FE0E
:1059E000518A00FB0660490108310844626882421E
:1059F00001D06FF09703184603B0F0BD2DE9F04FCA
:105A000006468B4691469846002789B0DDE9145A30
:105A10003068FFF7FBFD0130874202D36FF08D0441
:105A200021E0524639463046FFF78EFF04460028F3
:105A300035D1DAF8082090452FD8336859465B896C
:105A40002F609B1A6B600C22C5F80C8005F11400C6
:105A5000FCF723F9129BAC602B61DAF80830A3EB5A
:105A60000803CAF80830002533685B8A9D4205D2D6
:105A70006A4629463046FFF7EDFE98B14FF6FF75AE
:105A8000139B1D60CCB94FF6FF739D4208BF6FF0AA
:105A90008D04204609B0BDE8F08F0137B8E76FF0FC
:105AA0008304E0E705A800F0B7F920B1B9F1000FD1
:105AB000E6D14FF001090135D6E76FF08D04E8E734
:105AC00002B18160704773B5056804462846FFF748
:105AD000A3FD03462020616800908E682846616916
:105AE000B04702B070BD70B58CB00546FFF740FE00
