:020000040004F6
:10000000900904204D150400D74604002115040072
:1000100021150400211504002115040021150400F8
:100020000000000000000000000000007112040049
:100030002115040000000000111204002115040025
:10004000F5120400F5120400F5120400F512040084
:10005000F5120400F5120400F5120400F512040074
:10006000F5120400F5120400F5120400F512040064
:10007000F5120400F5120400F5120400F512040054
:10008000F5120400F5120400F5120400F512040044
:10009000F5120400F5120400F5120400F512040034
:1000A000F5120400F5120400F5120400F512040024
:1000B000F5120400F5120400F5120400F512040014
:1000C000F5120400F5120400F5120400F512040004
:1000D000F5120400F5120400F5120400F5120400F4
:1000E000F5120400F5120400F5120400F5120400E4
:1000F000F5120400F5120400F5120400F5120400D4
:10010000F5120400F5120400F5120400F5120400C3
:10011000F5120400F5120400F5120400F5120400B3
:10012000F5120400F5120400F5120400F5120400A3
:10013000F5120400F5120400F5120400F512040093
:10014000F5120400F5120400F5120400F512040083
:10015000F512040053B94AB9002908BF00281CBF92
:100160004FF0FF314FF0FF3000F00CB8ADF1080C4C
:100170006DE904CE00F008F8DDF804E0DDE90223C3
:1001800004B07047704700BF2DE9F04F07468C461A
:100190000846099E15463C461946002B40F0C5808E
:1001A0008242B2FA82F746D94FB1C7F1200E00FA67
:1001B00007F3BD4024FA0EFEBC404EEA030C4FEAA2
:1001C00015481FFA85FE220CBCFBF8F908FB19C381
:1001D00009FB0EFA42EA03439A4528D9EB1809F1C4
:1001E000FF3004D29A4502D9A9F102002B44A3EBB7
:1001F0000A03A4B2B3FBF8F208FB123302FB0EFEB3
:1002000044EA0344A64514D92C1902F1FF3303D262
:10021000A64501D9931E2C44A4EB0E0443EA0040EA
:100220001EB1FC40002334607360BDE8F08F484687
:10023000DDE71346F0E702B9FFDE87BB831A012131
:100240004FEA154EAAB2200CB3FBFEFC0EFB1C338A
:100250000CFB02F840EA0343984562D9EB180CF115
:10026000FF3004D2984502D9ACF102002B44A3EB35
:100270000803A4B2B3FBFEFC0EFB1C330CFB02F222
:1002800044EA0344A2424ED92C190CF1FF3304D2A4
:10029000A24202D9ACF102032C44A41ABEE7C7F172
:1002A000200CBD4000FA07F320FA0CF84FEA154E77
:1002B00024FA0CFCBC404CEA0302ABB2B8FBFEFCD7
:1002C000110C0EFB1C800CFB03F941EA0040814538
:1002D00023D928180CF1FF3104D2814502D9ACF1A1
:1002E00002012844A0EB090092B2B0FBFEFC0EFB19
:1002F0001C000CFB03F842EA004398450FD9EB18A9
:100300000CF1FF3204D2984502D9ACF102022B4421
:10031000A3EB080342EA014192E76146E2E7624645
:10032000F6E76046A3E76346B7E7834205D90EB117
:10033000C6E900700021084677E7B3FA83F181B976
:10034000834201D3BA420AD8BC1A60EB03030120EE
:100350009C46002E67D0C6E9004C002165E70846A0
:10036000F7E7C1F1200C8B4002FA01F522FA0CF4F8
:1003700020FA0CFB27FA0CF28F401C4300FA01F321
:100380004FEA144913431FFA84FE1A0CBBFBF9F819
:1003900009FB18BB08FB0EFA42EA0B4292453ED914
:1003A000A21808F1FF3004D2924502D9A8F1020048
:1003B0002244A2EB0A029BB2B2FBF9F809FB182215
:1003C00008FB0EFE43EA024296452AD9A21808F11C
:1003D000FF3304D2964502D9A8F10203224443EA2E
:1003E0000040A2EB0E02A0FB05939A42CE4698462F
:1003F00002D306D14F4504D20138B9EB050E63EBA9
:10040000040886B1B7EB0E0362EB080707FA0CFC91
:10041000CB40CF404CEA0303C6E900379DE7404696
:10042000C7E74346DBE73146FFE600002DE9F0432E
:100430000026134FDFF84C80DFF84C9089B0202263
:100440006946304600F024F8044648B101460F489A
:1004500003F0ECFF0136062EF1D109B0BDE8F083C0
:10046000384603F0E3FF6D46404615F8011B0134A2
:1004700003F0DCFF202CF7D1484603F0D7FFE9E773
:100480002853040031530400B15304001C530400EA
:1004900000B589B003AB0493079204230122CDE990
:1004A00005310390009206AB04A9034802F080F9DD
:1004B00009B05DF804FB00BF617D03000B680133E8
:1004C0000B60014B1B68184700000420014B1860AB
:1004D000704700BF0000042007B50B46002102460C
:1004E0000191034801A900F0E5F803B05DF804FBB1
:1004F000BD0404002DE9F84FB0F81890044619F037
:10050000080893460DD001290CBF49F0100949F0A5
:100510002009A0F818908BF31188BFF36F8FBDE806
:10052000F88F09F00709022907D1204603F08BFF55
:100530000028F0D00128238B4ED16769218B002F32
:1005400015DA256821F00701C4E9008841F00101AE
:1005500021830026218B01F0070ACA4502D0A36837
:10056000002B5AD10DB9002E71D0002356E001F0B6
:1005700007035A1F012A1ED821F00701062B256800
:1005800089B2C4E900880AD13DB12A46638B12685A
:1005900001339BB2002AFAD1638341F00201204665
:1005A000218303F050FF06460028D3D0238B43F06D
:1005B00020032383CDE7042B0CD121F0070189B25E
:1005C0002046218303F03FFF05460028C1D041F0BB
:1005D000200121830025BCE7032809D1226923F0EB
:1005E0000703166843F00603002523832F46B1E76F
:1005F000042806D1226923F00703566843F0040358
:10060000F2E7052806D1226923F00703966843F034
:100610000503E9E700252E46E8E7012341F008013C
:1006200021838BF31188BFF36F8FFBB985BB16B1A4
:1006300020461F49B0474FF02003EFF3118B83F39F
:100640001288BFF36F8F238B23F008032383238B40
:10065000DA0625D5012123F010032383B4F818907E
:1006600009F0070900297FF45EAF54E7A16800296B
:10067000DCD0D1F800903B4652462046D1F804B079
:10068000D847B9F1000FD1D04946D9F80090F2E728
:1006900029463B46524620462D6803F0F0FEC5E74A
:1006A00013F020011EBF23F0200302212383D5E78E
:1006B000AB4404002DE9F04F8B4692461C460025C2
:1006C00091B002909AF8000008B928465FE3252807
:1006D0000AF1010707D05946029B98470028C0F24B
:1006E0005683013512E2182200210AA804F049F8C5
:1006F0009AF80130252B78D0002210469646944671
:100700001646394617F8013B2B2B00F09D8000F26E
:100710009480202B00F09B80232B00F09B802EB137
:100720009DF8306046F004068DF83060BCF1000F93
:1007300005D09DF8306046F008068DF83060BEF1B7
:10074000000F05D09DF8306046F010068DF830603F
:1007500028B19DF8300040F020008DF830002AB11B
:100760009DF8302042F040028DF830209DF8302076
:1007700002F04400442803D16FF386128DF8302034
:100780009DF830202A2B42F080028DF830207BD15A
:100790009DF831204B1C42F001028DF831201A786F
:1007A0002E2A0CBF012100219DF8312061F3410266
:1007B0008DF8312074D15A782A2A6AD000210A266D
:1007C0000133184610F8012BA2F13007092F40F22F
:1007D0008E809DF830200E91C2F3400040EAD17126
:1007E00061F341028DF830205AE00AF102078DF8DA
:1007F00033309DF83130D90740F1498154F8049BDA
:10080000B9F1000F07DA9DF83020C9F1000942F074
:1008100004028DF830205A0740F1428154F8048BCD
:10082000B8F1000F80F241819DF831306FF3410340
:100830008DF831304FF0FF3837E12D2B0CD0302BB5
:100840007FF46DAF01225CE74FF0010C59E74FF0E8
:10085000010E56E7012054E7012652E733460CFB10
:100860000202303A1E4616F8010BA0F13007092F9C
:10087000F4D9994293D09DF830100D92D20F62F3C3
:1008800041018DF830108AE70B4600224FF00A0C28
:10089000E8E79DF83120023342F004028DF8312060
:1008A0001F4617F8012B6C2A41D025D8682A2BD077
:1008B0006A2A46D04C2A4CD01F4617F8012B9DF8C7
:1008C0003130782A8DF8332000F2D980572A4DD85C
:1008D000412A03D0453A022A00F2D18004229DF831
:1008E000323062F302038DF8323001239EE006FBC2
:1008F00001210346303964E7742A26D07A2ADBD1F5
:1009000006229DF831300DE05A78682A9DF8312092
:1009100006D1012161F3C6028DF831209F1CCCE77E
:100920001346022262F3C6038DF83130C5E75A78C8
:100930006C2A9DF8312001D10421EBE713460322F4
:10094000F0E705229DF83130ECE707229DF83130C1
:10095000E8E7BDF8303023F4F04323F0020343F41A
:10096000804343F00203ADF83030A6E7A2F158010E
:10097000202900F2848001A050F821F0410A0400EF
:100980007F0A04007F0A04007F0A04007F0A040033
:100990007F0A04007F0A04007F0A04007F0A040023
:1009A000DD0804007F0A0400410A0400010A040073
:1009B000DD080400DD080400DD0804007F0A0400EF
:1009C000010A04007F0A04007F0A04007F0A040071
:1009D0007F0A0400490A0400410A0400650A040071
:1009E0007F0A04007F0A0400650A04007F0A0400ED
:1009F000410A04007F0A04007F0A0400410A04003F
:100A000001209DF8321003F0780360F30201402BBF
:100A10008DF8321002BF9DF8301041F001018DF8C1
:100A20003010632A31D1003B18BF01239DF83020DC
:100A3000C2F340010B4363F341028DF83020D8E646
:100A400002209DF83210DEE703219DF8322003F0EA
:100A50007803A3F1400061F3020243428DF8322093
:100A60004341E3E703219DF8322013F0780F61F34F
:100A7000020214BF012300238DF83220D6E79DF82F
:100A8000303043F001038DF830300023CEE79DF97C
:100A90003020002AACBF4FF0FF39DDF83490BAE6C1
:100AA0009B077FF5C7AEDDF838800023CDE90D3315
:100AB0009DF832309DF8311003F00703012BC1F38C
:100AC000C30138D1CB1E042B22D8DFE803F0030981
:100AD0000921210054F8043BDA17CDE90A3206E077
:100AE000073424F00704F4E80223CDE90A239DF833
:100AF000303013F0030656D03B4652465946029812
:100B000003F09CFD0028C0F242810544BA46D9E5B5
:100B100054F8043B01294FEAE372CDE90A3205D1CA
:100B20009DF828300A9300230B93E0E70229DED1D9
:100B3000BDF92830D0E7022B23D1CB1E042B13D8CC
:100B4000DFE803F0030A0A12120000232268201DC6
:100B50000A920B930446CAE7E01D20F00700F0E874
:100B60000223CDE90A23F5E754F8043B01290A934F
:100B70004FF000030B93D3D00229B8D1BDF8283031
:100B8000D0E7042B09D1E31D23F0070303F1080488
:100B9000D3E90023CDE90A23A9E7032B04BF54F8C6
:100BA000043B0A93A3E79DF833007828AED8622867
:100BB00022D825283FF48FAD5828A7D1DDE90A01B6
:100BC0000DF1260300930CAA04AB03F0F1FC82465E
:100BD000B8F1000F0DF126000CDB9DF83020A0EBE2
:100BE0000A036FF3861298458DF8302002D9A8EBDE
:100BF00003030D9380463DE06338152886D801A293
:100C000052F820F0850C0400E90C04000D0B0400E0
:100C10000D0B04000D0B04000D0B0400E90C040087
:100C20000D0B04000D0B04000D0B04000D0B040054
:100C3000430D0400110D0400150D04000D0B0400FC
:100C40000D0B04005D0C04000D0B0400110D0400DD
:100C50000D0B04000D0B0400110D0400B8F1000F82
:100C6000DDF828A00ADB4146504603F076FD002659
:100C70000AEB0008BAF1000F0CD147E7504603F029
:100C800065FDF4E700260A9B0DF1100A8DF810307F
:100C90000DF11108A8EB0A0306B101339DF83220CB
:100CA000D00668D5023352060D9948BF0E9A0B4400
:100CB00048BF9B18B9F1000F76DD9DF83020A9EBF5
:100CC0000309C2F38003039353076DD4500661D523
:100CD00046B159463046029B9847002857DB039B94
:100CE00001351E46302356E01E070FD413F01006C0
:100CF00018BF2026DDE90A23002BBFF65FAF524262
:100D000063EB43032D26CDE90A2357E72B26F1E7B2
:100D1000002653E70A9840B30DF126030093002103
:100D200004AB0CAA03F044FCBDF83230824603F059
:100D3000EF0343F4F04343F010030026ADF83230E4
:100D400046E70A9B07293FF6E1AEDFE801F00C0415
:100D5000060C08080C0C1D70D8E61D80D6E6EA17B4
:100D6000C3E90052D2E61D60D0E6DFF8C8A006460F
:100D70000AF105088EE7110748BF013393E71846CB
:100D800003935946029B98470028039B04DA11B04D
:100D9000BDE8F08F20234D444A46002AA5EB090107
:100DA00009F1FF39EBDC0D4636B159463046029B5E
:100DB00098470028EBDB01359DF83230D90601D485
:100DC0001A0706D559463020029B98470028DEDBDB
:100DD00001359DF83230DB0607D559469DF83300C2
:100DE000029B98470028D2DB01350D9E2E44731BD1
:100DF000002B16DC434652465946029803F01EFC6F
:100E00000028C4DB0544A944A9EB0503002B7FF7A8
:100E10007DAE59462020029B98470028B7DB01355C
:100E2000F2E759463020029B98470028AFDB013596
:100E3000DDE700BF3653040048B1054B1A68054B87
:100E4000B2FBF3F2044B504343F0010318477047E1
:100E50002000042040420F00F05104002DE9F84327
:100E600005464FF02003EFF3118683F31288BFF39A
:100E70006F8F0E4B1C689CB14FF00C090C4FDFF8C4
:100E80003480D4E90132002D08BF13462BB198F805
:100E9000142009FB02F2B85C98472468002CF0D1BA
:100EA00086F31188BFF36F8FBDE8F8830802042032
:100EB00010020420500304200123420900F01F0007
:100EC00003FA00F0C043054B03EB8203D3E8EF2F96
:100ED0000240C3E8E12F0029F8D170471C0204202A
:100EE000012238B5174B1C7D04F01F039A40D043F4
:100EF000154B610903EB8103D3E8EF1F01EA0005FD
:100F0000C3E8EC5FBCF1000FF6D1114213D00F4BD8
:100F10000F4D8BB10C236343EA185178E85C03F062
:100F2000CAFB0020FFF79AFF0C235C4300232A1919
:100F30002B51C2E9013338BD83F31188BFF36F8FA2
:100F4000EFE700BF5003042020020420B74604004E
:100F5000100204202DE9F8432F4B07461C7D4FEA71
:100F600054184FEA88082D4B4344D3E8AF3F04F0B0
:100F70001F0943FA09F313F0010F294E0AD1014664
:100F8000204600F063F828B107C80C2303FB046374
:100F900083E807000C236343F55CF2182DB9204663
:100FA000FFF78AFF2846BDE8F8837B1C0FD04FF47B
:100FB00000450021D2F808C01A480023ECFB0501C7
:100FC000194AFFF7C7F80121381A03F05BFF02F056
:100FD0009DFD0120FFF742FF012303FA09F9134B9E
:100FE0009844D8E8EF3F43EA0903C8E8E23F002A03
:100FF000F7D10F4B33B10C236343F2185178F05CF7
:1010000003F04DFBFFF76CFF2046FFF755FF02F0A2
:101010004DFF0120C7E700BF500304201C0204203D
:10102000100204203F420F0040420F002002042023
:101030009F460400044B03EB8000D0E8AF0F00385C
:1010400018BF0120704700BF240204202DE9F04F93
:1010500085B00F4603A900F047F84FF0000B441E7F
:10106000DFF87880DFF878A024B2631C04D1002672
:10107000304605B0BDE8F08F039A04EB440312F844
:10108000230002EB8306FFF7D5FF054610BB4FF4A4
:101090000049C446294670685246E0FB09C15B46D8
:1010A0006046FFF757F8C44629460190B0685B4692
:1010B000E0FB09C152466046FFF74CF8094B1B683C
:1010C000591C01D0834205D97A1CD1D0019B184408
:1010D000B842CDD9013C24B2C7E700BF3F420F0060
:1010E00040420F000400042008B9024B0B600020AE
:1010F000704700BFF8510400014910220A60704790
:1011000010ED00E072B6404080F31188BFF36F8F9E
:10111000BFF34F8F30BF62B6BFF36F8F704700BF12
:1011200072B6494081F3118820BF80F3118862B6FE
:10113000704700BF43B2002B08DB012200F01F0004
:1011400002FA00F0024A5B0942F82300704700BF30
:1011500000E100E0054B420953F82220012300F092
:101160001F0003FA00F01040704700BF00E100E0EC
:1011700043B2002B01F10101ACBF03F16043064B08
:101180004FEA4111C9B2ABBF03F5614300F00F0054
:1011900083F800131954704714ED00E030BFFFF7D7
:1011A000FDBF00BF0B4A08B50B4B22F07F029A60CF
:1011B000BFF34F8FBFF36F8FD3F8882022F47002F4
:1011C000C3F8882002F0F6F902F092FF00F0B2F9BD
:1011D00002F030FA0000040000ED00E0094A0A497C
:1011E000936809685867996708494B6843F08053CA
:1011F0004B60002383F31188BFF36F8F9368986F60
:10120000704700BF500304201853040000ED00E0B5
:1012100015498A6882F87DE04FF030001044EFF302
:10122000098C80E8F01F202080F31288BFF36F8FB5
:101230000E4F4FF00066CA698A603E6092F97DE009
:10124000506F0023536780F3118802F1300090E85B
:10125000F01F8CF3098802F1000004B503F042FA94
:10126000BDE80440704700005003042004ED00E096
:101270001EF0040F0CBFEFF30880EFF309808169C3
:1012800011F8021C0229FFD001B503F01CFA01BDC0
:1012900042F8203C009B0C4942F81C3C019B21F089
:1012A000010142F8183C029B42F8081C42F8143C29
:1012B0004FF0807342F8043C002343674FF43C43F3
:1012C000203A0265C36770479D450400084B98604B
:1012D000436E83F30B88104681F30988002163B6BF
:1012E00081F31188BFF36F8F0022002303F056F9BA
:1012F0005003042001B572B60B4A906900281EBF46
:101300000021916103F0E7FC62B6EFF30580A0F1E4
:1013100010004FEAC0000549014409C99847BDE8DB
:10132000014003490847000050030420A44F040073
:1013300035130400044B9968D869884203D00349E7
:101340004FF080520A6070475003042004ED00E023
:10135000094B9A6A9A6A986A9A6A9A6A9A6A9A6A1F
:101360009A6A10F480106FEA02426FEA124218BFC4
:1013700002209A62704700BF00ED00E00D4B9A6AB0
:101380009A6A9A6A920508D59A6B9A6A120404D5E9
:1013900018B19A6A22F400429A620020054B9A6AB8
:1013A0009A6AD20558BF9A6A9A6A42F47F429A6250
:1013B0000870704700ED00E0124B9A6A9A6A9A6AC8
:1013C000920708D55A6B9A6A120604D518B19A6A20
:1013D00022F080029A620B4B9A6A9A6A9A6AD00645
:1013E0004FF0000058BF9A6A9A6A920642BF5A6A42
:1013F00022F400525A62034A936A43F0FF03936255
:101400000870704700ED00E070B53E4B05465B6824
:1014100000268AB0C3F3080386F31188BFF36F8FE9
:1014200002F07F40B0F17F4F16D1D00714D454069C
:1014300003D4100704D4012604E012F0040601D0FE
:101440000D4600260022033B8DF80720032B52D8BF
:10145000DFE803F004494D463546F3E7294BDC6AE3
:1014600014F0020447D1DA6A002A0ADBDA6A520071
:1014700007D5AA6932F8021C4DF60272914218D1C2
:101480002C689DF8073093B92022294602A803F062
:101490006DF9099B8EB3C3F3080222B96FEA532397
:1014A0006FEA43230993204602A903F00AF90AB020
:1014B00070BD93F8282032B101200DF10701FFF72C
:1014C0007BFF0446DDE793F829202AB101200DF1C6
:1014D0000701FFF753FFF4E75B8D9BB2002BD0D0E1
:1014E000FFF736FFEDE700200DF10701E7E70020E9
:1014F0000DF10701EDE70024C3E723F4FF7323F0A8
:101500000103CFE700ED00E0044B5A6942F01002FE
:101510005A615A6942F480625A61704700ED00E0F6
:10152000EFF30880EFF3098101B57246FFF76CFF16
:1015300001BD00BF002320210348C2180133452B01
:1015400082F80013F9D1704700E100E0002080F339
:101550001488BFF36F8F002080F30A8880F30B8814
:1015600003F0B6FC00200E490860BFF34F8F0D4812
:1015700080F3088800F03EF8202080F311880A48A4
:101580004FF40061401880F30988EFF314800221C2
:10159000084380F31488BFF36F8FFFF703FE00004A
:1015A00094ED00E090090420D00A0420BFF34F8F8F
:1015B0000549064BCA6802F4E0621343CB60BFF3EF
:1015C0004F8F00BFFDE700BF00ED00E00400FA050B
:1015D000002318460649D1F89020C2F3072293420F
:1015E00000D17047C1F89830C1F8A0000133F6E788
:1015F00000ED00E010B572B6002484F31388FFF705
:10160000E7FF23464FF0FF300B4A03F1200101337F
:10161000102B42F82100F8D100234FF0FF3003F1E6
:1016200060010133102B42F82100F8D162B6BFF3FC
:101630004F8FBFF36F8F10BD00E100E0084B9B6838
:1016400083420BD1EFF3058343B1064B5A6842F056
:1016500080525A605A6A22F400425A6202F0F6BC82
:101660005003042000ED00E01FB5094C094A234651
:101670000121094800F0F2F800230393074B0121F0
:10168000E41A01A80193029400F0F2F804B010BD2E
:101690000000082000000420F8510400E0000420AD
:1016A00010B50B680C7A23F01F0204F01F031A43D5
:1016B000CB68640923F01F03054943EA440343F060
:1016C0000103C1F89800C1F89C20C1F8A03010BDFA
:1016D00000ED00E02DE9F04F0F46144606464FF0AE
:1016E0000008524D85B0B84509DAD6F80490B9F132
:1016F000000F3AD0B9F11F0F05D86FF0150420463E
:1017000005B0BDE8F08F19F01F0FF6D1D6F800A094
:101710001AF01F0FF1D1504602F0EAFF834609EBA1
:101720000A00013802F0E4FF8345E6D11BF1160FF1
:10173000E3D05C45E1DDC5F898B0D5F89C10C5F85C
:1017400098B0D5F8A03021F01F0143F01F0AD6E968
:1017500000321A44994202F1FF391ED1CA4508D11C
:1017600031465FFA8BF002F0CCFF08F101080C362D
:10177000B9E73146C5F898B0D5F89C3022F01F0281
:1017800003F01F031A43C5F89C20E0B202F0B9FF32
:1017900010F1160FB1D0441CE7E7013BCA45E0B297
:1017A00023F01F03C5F898B008D1D5F8A020314622
:1017B00002F01F021343C5F8A030E7E7D5F8A010E8
:1017C00001F01F010B43C5F8A030314602F099FF2C
:1017D00010F1160F91D0C5F898B0D5F89C209DF85F
:1017E00008300AF1FF3A62F304038DF80830D5F8A7
:1017F000A0309DF808205B0863F347128DF808209D
:10180000D6E900321344009323F01F03411C5344D4
:10181000A3EB0903C8B223F01F03072803933FF685
:101820006CAF6946FFF73CFFB5E700BF00ED00E095
:101830000522044BC3F89420BFF34F8FBFF36F8F83
:10184000704700BF00ED00E0BFF35F8F0022024B46
:10185000C3F89420704700BF00ED00E010B5034CC2
:101860002278FFF737FF207010BD00BF88030420E7
:101870002DE9F74F294D8A4606464FF00008AB4642
:10188000274FD0451BDAD6F80490B9F1000F3FD0AE
:1018900031680846019102F02BFF0199044609EBDB
:1018A0000100013802F024FF84424FF014021D4B66
:1018B00008D06FF0150302FB08F84BF8083003B0AE
:1018C000BDE8F08F14F1160F2C60F8D01978A14202
:1018D000F5DD02FB08B0C7F89840C7F89840D7F884
:1018E0009C4000F10801007B64F304000871D7F804
:1018F000A0000C79400860F347140C71D7F89C10D5
:1019000021F01F016960D7F8A01021F01F012961A3
:1019100008F1010814350C36B3E700BF400204207B
:1019200000ED00E08803042038B50E4D2C68082C2B
:1019300015D80020FFF788FF0B4B0C4AC3F8C020D6
:10194000844205D10A4B00201C70FFF771FF38BD9F
:10195000696801EB0011FFF7A3FE0130F0E74FF0DB
:10196000FF30F4E70452040000ED00E0AAFF440059
:101970008803042008B5024802F058FDFEE700BFC6
:101980003C530400014B1860704700BF080004205E
:10199000084B70B5C31A0D4607499B1004465943BE
:1019A0004022064802F015FF2B4601462046BDE8BE
:1019B0007040184764020420B76DDBB62C4F04005A
:1019C000402373B50B4C0093041B0B460D460A498C
:1019D000A41061430646094A094802F026FF011E89
:1019E00005DA30462B4602B0BDE87040184702B019
:1019F00070BD00BF64020420B76DDBB69B480400D5
:101A00002C4F04002DE9F843002201210646052051
:101A1000FFF7AEFB114800F0C5FF114B984219D1FA
:101A200000F0D0FF00244FF01C080C27DFF83490A2
:101A30003569494608FB045002F054FD002807DBD5
:101A4000012307FB04551C44042CAB67F0D1002094
:101A5000BDE8F8836FF00400FAE700BF9D1A0400A8
:101A60000000AD0B6452040001460C2300224B43DE
:101A7000084870B5C4187833D4E91C561844226756
:101A800002F094FE2DB132462B46BDE8704002486C
:101A9000184770BD640204202C4F0400052811D89B
:101AA000DFE800F0030E10100C0A074B986F10F0DF
:101AB000070007D1FFF7D8BF0220FBE70320F9E7B3
:101AC0000120F7E7704700BF6402042008B54FF01B
:101AD0002003EFF3118183F31288BFF36F8F114A54
:101AE000136843F0020013F0010310600BD00E4A9C
:101AF000D2F80C34D2F80C2413F0010303D00B48B5
:101B000002F054FE012381F31188BFF36F8F23B1DC
:101B1000BDE808400020FFF7A7BF0120BDE808404E
:101B200000F064BF0403042000500040DC020420E5
:101B30001FB500220123CDE902236B46084ACDF8E8
:101B400000D0CDF804D002F0A1FE002805DB4FF450
:101B500080420023684601F059FF05B05DF804FBA0
:101B6000D1480400074BD3E8EF2F22F00201C3E86D
:101B7000E01F0028F7D1D30702D4012003F01EB8DC
:101B8000704700BF040304202DE9F04101220746FD
:101B90003549D1E8EF3FC1E8E02F0028F9D133B94A
:101BA000324933484B60CB608A6002F0AEFC7B1E4A
:101BB000012B2DD8012F06D12E4BD3F81C3403F066
:101BC0000303022B24D003F080F8044618B92A4BF3
:101BD0001B78002B41D14FF02003EFF3118683F3E4
:101BE0001288BFF36F8F0124224DDFF89080D5F863
:101BF0001834D5F81824D2030CD503F00303022BB4
:101C000001D0012F06D124B386F31188BFF36F8F63
:101C1000BDE8F081C4B13046FFF782FAD5F8183537
:101C2000DBB2012BE3D1D5F80421002ADFD000225A
:101C3000C5F80421D5F804210222C5F81825202270
:101C4000C8F88021AB60D2E70021212002F0DEF944
:101C5000E4E70223C5F80433DAE70222054B06461F
:101C6000C3F80823C0E700BF08030420540204207F
:101C700080020420005000408905042000E100E0BB
:101C800008B50848084B186002F0F6FF38B107485D
:101C9000FFF778FE0548FEF719FC002008BD6FF03D
:101CA0001200FBE78C4F04000C030420B11C04005D
:101CB0000A2838B50446074D04D1286883680D21E9
:101CC0005B68984728688368E1B25B68984720465C
:101CD00038BD00BF0C03042030B5406801F01F057B
:101CE000047BB2F5001F45EA441585B04FF00004AF
:101CF00004D1284601F074F9002031E0B2F5800FDC
:101D0000CDE902442ED1B3F1007F0CBF042305239B
:101D10008DF80830836823FA01F1C9072ED4B2F197
:101D2000A07F2BD11E4A1F486909012908BF02461E
:101D300005F01F03803352F82330DB071ED40DF16A
:101D400007042146284601F0B1F8174B984214D1F8
:101D5000204601F0F9F8154B98420ED06FF00B00B9
:101D600005B030BDB3F1C06F05D0B3F1007F0CBF3B
:101D700002230123CCE70323CAE703940023284668
:101D8000194602AA00F06CFF084B984204D10121C9
:101D9000284601F0DFF8AFE76FF00400E0E700BF8E
:101DA00000258440002884400400AD0B0000AD0BEA
:101DB00010B501F0B9F8044668B901F08DF8084B88
:101DC00098420AD12146074801F06AF822460521C7
:101DD0002F20FFF7CDF9002010BD6FF00400FBE7C6
:101DE0000000AD0BE91D04004209034670B502D0A6
:101DF000012A15D070BD0B4E326951680029F9D007
:101E0000012503F01F030C689D408A682A4002D018
:101E100030464B689847002CECD021462468F4E704
:101E2000014EE9E7444F04005C4F04002DE9F04304
:101E3000476801F01F053B7B0E46144685B045EA16
:101E40004315CAB902A9284601F030F804462846CD
:101E500001F0EEF8494B984204D06FF0040005B051
:101E6000BDE8F083844205D19DF8080001F066F8D2
:101E7000A042F2D10020F2E74FF000090DF103017A
:101E80003046CDE9029901F011F84B4680464946AB
:101E9000284602AA00F0E4FE384B984202D06FF0C8
:101EA0001500DCE7804503D19DF8030001F046F8FA
:101EB000A3034FD540F2066340F20622234093422B
:101EC0003AD00CD8062B15D004D89BB1022BE6D102
:101ED00004230FE0B3F5007FE1D101230AE040F2D3
:101EE000024293422AD0B3F5C06F29D0B3F5806F78
:101EF000D5D102238DF8043084F48033C3F300433A
:101F0000E0068DF805304CBF0323C4F340132103D2
:101F10008DF8063016D501217B6801FA06F69E6021
:101F20000022284601A900F047FF144B984214BF35
:101F30006FF01500002092E70723DBE70523D9E7C0
:101F40000323D7E7620341BF01217B6801FA06F64C
:101F5000DE60E5E7E3064FF000034CBF0324C4F363
:101F600040141A46284601A98DF8044000F078FE76
:101F7000024B98423FF47EAF91E700BF0000AD0BEB
:101F8000F0B54B79012B28D0032B23D110278B7967
:101F9000032B1FD1CD790DB1012D1BD10A79012A57
:101FA0001DD0022A1FD0AAB914460B684668B3F5A3
:101FB000164F36686ED033D8B3F5165F6DD01CD887
:101FC000B3F5966F6BD010D8B3F5967F6AD0B3F5A2
:101FD000167F6AD06FF085005BE00027D7E74FF4EB
:101FE00080740E22E1E70024FBE7B3F5166F5FD0A3
:101FF000B3F5965FEED1394B3EE0B3F5E14F5AD0E1
:1020000007D8B3F5615F58D0B3F5964FE2D1344BA2
:1020100032E047F6122C6345DCD14FF400032BE08D
:10202000B3F5613F4BD013D8B3F5963F4AD009D8EA
:102030004DF6C02C634547D0B3F5614FCAD14FF47C
:102040006B0319E0B3F5E13FC4D14FF0EB7313E03C
:10205000B3F5612F3BD009D8DFF888C0634539D08C
:10206000B3F5E12FB6D14FF0E86305E0DFF878C0B3
:102070006345AFD14FF0805300692C433A43C6F813
:1020800024352243031DC6F86C2503C983E80300E9
:102090000020F0BD4FF41D03EEE7144BECE74FF4C6
:1020A0009E23E9E74FF4A033E6E74FF41C33E3E760
:1020B0004FF41D23E0E70E4BDEE70E4BDCE74FF05D
:1020C0006C73D9E70C4BD7E74FF46503D4E74FF0B7
:1020D0007063D1E74FF08063CEE700BF00B013001C
:1020E00000A04E0090D0030040420F000050270097
:1020F00000C0750000F03A0000903A012DE9F74366
:102100000746002201210820FFF732F80820FFF7D8
:1021100011F80021D7F804803E69D8F80040D8F8BB
:102120000C90C4F800154846376001AA02F09AFCEA
:10213000051E4FDB019BD9F800201979186802F0C1
:10214000A9FC051E46DB3846311DFFF719FF054681
:1021500000283FD1D8F80430990712D506F11200B3
:1021600000F0F8FC1F4B984238D1B27C42F000439B
:10217000C4F8A031C4F88C30012393401A4AC2F845
:1021800004350823C4F8003598F808305BB9C4F862
:102190001031D4F8103106F11103C4F8343501239D
:1021A000C4F838352360D8F8043010369A075CBF7D
:1021B0004FF48072C4F80423DB0644BF4FF480035D
:1021C000C4F804330023C4F84465C4F84835012337
:1021D000A360E360284603B0BDE8F0836FF0040518
:1021E000F8E700BF0000AD0B00700140F8B50546F0
:1021F0000F46066902F069FD10B92C4B1B7883B9B4
:102200004FF02003EFF3118483F31288BFF36F8F35
:10221000686802F0CCFB28BB84F31188BFF36F8F92
:10222000EEE76424686802F0C2FB70B9012002F096
:10223000C3FC013CF6D10021212001F0E7FEF0E7CC
:1022400084F31188BFF36F8FF5E74FF02003EFF3AE
:10225000118483F31288BFF36F8F686802F0A7FBC5
:102260000028EDD0012206F8107F69680B68C3F8DA
:102270004465C3F848250022C3F82021D3F8200183
:10228000C3F85821D3F858214A68D20641BF082222
:10229000C3F800254FF48002C3F8042301229A609A
:1022A00084F31188BFF36F8FF8BD00BF8905042048
:1022B0000123834010B5DC430C4AD2E8EF1F01EA4A
:1022C000040CC2E8EECFBEF1000FF6D14FF480321D
:1022D00002FA00F0064AC2F80803BFF35F8FBFF3AB
:1022E0006F8F0B4214BF0120002010BD2C0304206F
:1022F000005001401949F8B5044622F07F450868AE
:10230000C1E90023A5F50013101AB3F5400F22D23E
:10231000134B1B681A0A1B065E19124B42F1000789
:10232000C3E90067012601F0C1FFA30003F1804368
:1023300003F5A833D3F84025AA420BD11EB94FF4B8
:102340000002C3F840254FF48030074B00FA04F434
:10235000C3F84443F8BD0026E5E700BFF8000420B9
:1023600030030420E000042000500140E1B10123CB
:102370000E4A8340D2E8EF1F1943C2E8EC1FBCF1BC
:10238000000FF7D14FF48033094A8340C2F8043379
:10239000084BD3E8AF3F23FA00F0C30742BF4FF426
:1023A0000012054BC3F80021704700BF2C03042026
:1023B000005001402803042000E100E00D4B1868A4
:1023C000010A0006BFF35F8F0B4BD3F804351818D2
:1023D00041F10001B3F5801F0AD2084BD3E9002375
:1023E000904271EB030303D210F1807041F10001C0
:1023F000704700BF3003042000500140E00004207B
:102400002DE9F04F85B0164698460546FFF750FF78
:102410000090FFF7D3FFB04271EB080376D2434B35
:10242000301A68EB0101984271F100037BD2404BF6
:1024300003EB0513D3E902ABD84508BF564550D08E
:102440004FF4803326F07F4214464FEA850905F1A8
:10245000500709F18049BF00AB4009F5A839BFB268
:1024600007F180470193D9F84005324B07F5A837AB
:10247000D3F80415401A20F07F4021F07F4C01284A
:10248000C9F840C507D1CDE90221132002F018FD9B
:10249000DDE90221274B01F1020CA4EB0C0020F036
:1024A0007F40B0F5000F88BF644600203860386870
:1024B0000198C3F8440324F07F40C9F84005D3F8DD
:1024C0000405814206D0201A023820F07F40B0F582
:1024D000000F19D8A41A24F07F4414EB060A48F11F
:1024E000000B002412490E982B0101EB0512C85075
:1024F000C2E902AB0F9B536028460099FFF736FFF5
:10250000204605B0BDE8F08F2046B1E701230A4A16
:10251000AB40D2E8EF1F1943C2E8E01F0028F8D112
:10252000B246C346DDE76FF01504E5E701000001A0
:10253000E8000420005001402803042073B5002463
:102540004FF0FF304FF0FF31164D174BC5F80845DF
:10255000C3E902014FF4803302264FF40012C5F89C
:102560000433124B0121C5F804631520C3F8802100
:102570002246FEF7FDFD1520FEF7DCFD01230C4A87
:10258000AB602B6013600B4B0B4A0093204600237B
:102590000194FFF735FF3046FFF7F6FA204602B008
:1025A00070BD00BF00500140E800042000E100E0E1
:1025B0002C030420F5220400FFFF7F00354B2DE99A
:1025C000F743D3F8042391070BD5D3F8042142B184
:1025D0000022C3F80421304AD3F8043113680133D0
:1025E00013604FF02003EFF3118183F31288BFF3E0
:1025F0006F8F284BD3F80423D2030ED5274AD2E895
:10260000EF0F20F00104C2E8E54F002DF7D10028BC
:1026100037D1D3F84021002A33D1002381F3118828
:10262000BFF36F8F53B3FFF7C9FE4FF02003EFF3F3
:10263000118783F31288BFF36F8F194BD3E90245DB
:10264000A04271EB05024FF0000221D3D3E900163E
:102650004FF0FF384FF0FF391A604FF48032C3E972
:1026600002890C4BC3F8482387F31188BFF36F8F9F
:1026700021B122462B4600200096884703B0BDE8D2
:10268000F0830022C3F84021D3F840310123C5E78D
:102690001146E9E7005001403003042028030420DC
:1026A000E8000420431C13B520D0012820DDB0F53C
:1026B000000F1FDA441EFFF781FE0F4BD3E9001312
:1026C000401AB0F5000F28BF0024013002190B4852
:1026D000824228BF02460020521809490190009109
:1026E00043F10003FFF78CFE02B010BD0348E1E7A1
:1026F0000024E0E7014CDEE7F8000420FFFF7F0044
:10270000F522040008B5FFF759FE024B1B68C01AFA
:1027100008BD00BFF800042000F4805370B5002B02
:102720000F4E0EBF15460125002110F0200F0D4B56
:1027300018BF334600F01F04C0F3811203EB84037B
:1027400000F47060D3F8004240EA82020A4304F0C9
:10275000E04442EA45022243C3F8002270BD00BFB4
:102760000028844000258440054A064B00F01F01E4
:102770004009012808BF134601228A409A60704729
:10278000002884400025844059B9430900F01F0106
:10279000054A0648012B08BF024601238B40D3603F
:1027A0007047FFF7E1BF00BF002584400028844048
:1027B0002DE9F0411F46154B044693F800800D4665
:1027C0001646A2B0B8F1000F15D1684601F08EFF91
:1027D0003A4631462846289BA0470446684601F001
:1027E00086FFB8F1000F02D0094801F0ADF820468D
:1027F00022B0BDE8F0814FF0FF324FF0FF330448C4
:1028000001F02AF80028E0D01F24F0E78905042011
:10281000C8000420044BD3F85825044B02F00302EF
:10282000D340034A13607047005000400020A107C6
:102830002000042070B501250268B2FA82F3C3F1CA
:102840001F035E1CDCB210D005FA03F322EA030377
:10285000D0E8EF6F964204D1C0E8EC3FBCF1000F26
:10286000F6D1E9D102480C7070BD0248FCE700BF08
:102870000000AD0B0200AD0B036810B5CB40DB07C9
:1028800011D4012303FA01F1036841EA0302D0E8FD
:10289000EF4F9C4204D1C0E8EC2FBCF1000FF6D101
:1028A000F2D1024810BD0248FCE700BF0000AD0BAA
:1028B0000400AD0BF7B5054603286FD8DFE800F03C
:1028C000021F2A370222364BC3F808230022C3F81E
:1028D0000421D3F804210122DA6001239D4218BFAC
:1028E000002442F210772E4E8DF8073008BF0DF10C
:1028F0000704032D52D8DFE805F02738414A0122AA
:102900000021274BC3F80823C3F80011D3F80011A6
:102910005A60E2E74FF40072214BC3F8082300220B
:10292000C3F82421D3F8242101225A62D5E74FF4B9
:1029300080721B4BC3F808230022C3F82021D3F870
:1029400020210122DA61C8E724B1D6F8183403F057
:1029500003032370D6F81834DB031FD5D4B9012044
:1029600002F02AF9013FC4D118E024B1D6F80C34A2
:1029700003F001032370D6F80C34EDE724B1D6F848
:102980005C3403F001032370D6F85C34E4E7D6F836
:102990005434E1E79DF80730012BE0D003B0F0BDDF
:1029A00000500040044B1A7922B9012218601A71B4
:1029B0000248704702487047340304200000AD0B02
:1029C0000C00AD0B08B50520FEF7C4FB10B90520BF
:1029D000FEF7B0FB0122044BC3F81825C3F81425F9
:1029E000C3F8802508BD00BF0050004008B503288B
:1029F0001CD8DFE800F002313C492A4AD2F81834EA
:102A0000D2F81814C90312D4D2F81434DB0718D43E
:102A10000123244AC2F818350023C2F80431D2F841
:102A200004310223C2F804330123936008BD03F08C
:102A30000303022BEDD0012BEBD00020FFF73AFF70
:102A4000E6E7D2F81C3403F00303013B012BF4D872
:102A50000223C2F80433E9E70022124BC3F8002135
:102A6000D3F800210122C3F804231A60DEE7002214
:102A70000C4BC3F82421D3F824214FF40072C3F87F
:102A8000042301221A62D1E70022064BC3F8202159
:102A9000D3F820214FF48072C3F8042301229A61F5
:102AA000C4E700BF00500040284B10B5D3F8002108
:102AB00052B10020C3F80001D3F800210122C3F86D
:102AC0000823234B1B689847204BD3F804218AB175
:102AD0000022C3F80421D3F80421D3F81824D3F832
:102AE000181402F00302012A4FF0020126D1C3F8A4
:102AF00018159A60154BD3F8202162B10022C3F853
:102B00002021D3F820214FF48072C3F80823104B02
:102B100004201B6898470D4BD3F82421AAB1BDE8C7
:102B200010400022C3F82421D3F824214FF400726E
:102B3000C3F80823064B05201B681847C3F8081381
:102B4000034B01201B689847D4E710BD005000409C
:102B50003403042001460148FFF76CBE2400042022
:102B6000036803F01F020260034A04485B09012B5B
:102B700008BF1046704700BF0028844000258440ED
:102B8000034B083033F81000C0F34010704700BF0B
:102B90002800042070B50D4C00F1080334F8133000
:102BA0000546DA050E4607D5C3F3432304EBC302FB
:102BB000526854F833309847A3682BB13146284601
:102BC000E268BDE87040184770BD00BF28000420CF
:102BD000124A083032F8103010B4D9051BD5C3F3AF
:102BE000432123F4F85322F81030002002F110049E
:102BF00034F8023B13F4807F03D0C3F3432399429C
:102C000009D001303028F3D10023054810BC42F828
:102C10003130FFF731BE10BC704700BF28000420E0
:102C20009C00042038B50246FFF7AAFF0B4C02F1C6
:102C3000080560B1002134F815305B0B9B0003F1EF
:102C4000804303F53C33C3F81015C3F81015104644
:102C5000FFF7BEFF002324F8153038BD28000420FC
:102C60002DE9FF41044616461D4621B34E4F00F1A3
:102C7000080837F818309B0706D5FFF781FF18B111
:102C80004A4804B0BDE8F08100232046CDE9003376
:102C90008DF80E308DF80F300DF10F020B460DF14F
:102CA0000E0101F08DFF37F8183023F0020343F0D6
:102CB000010327F8183096B13B483378726804F165
:102CC000080630F816108F070CD5002AD8D130F836
:102CD000162022F01C0242EA830320F81630CDBBF6
:102CE0003348CEE721F02001C904C90C20F81610A2
:102CF000002AECD0032BC3D892F800C062469200A1
:102D000002F1804202F53C3223B9C2F81035C2F814
:102D10001035DCE7D2F8107541EA4C3127F0030793
:102D2000C2F81075D2F8107541F0200127F44F3722
:102D300027F44077C2F81075D2F810E5270207F49F
:102D40007C574EEA034E47EA0E07C2F8107520F88A
:102D50001610BCE72046D5E90067FFF739FF002EC3
:102D6000BED0114D2B689E4204D16B689F4201D1A9
:102D700000220AE00F480DF10F01FFF75BFD0C4B3D
:102D800098427FF47EAF9DF80F2005EBC203083414
:102D90005F6035F8143045F8326043EA422343F46B
:102DA000807325F814309BE7280004200400AD0B45
:102DB0000000AD0B9C000420F0B50446154685B01C
:102DC00019B3344E00F1080736F81720930703D4DF
:102DD000FFF7D6FE00285AD112F01C0F02D04B7814
:102DE000012B54D001238DF80F3000234A1CCDE96C
:102DF000001320468B1C0DF10F0101F0E1FE36F8A7
:102E0000173043F0030326F8173015B9224805B0F0
:102E1000F0BD204E04F1080736F81700830736D5B9
:102E200095F800C00023614620F02000890001F1E0
:102E30008041C00401F53C31C00CC1F8103526F8C2
:102E40001700C1F810356A78002ADFD0D1F81035A4
:102E5000AD7823F4991323F4F853C1F81035D1F861
:102E600010E5230203F47C53120402F4403243EAD7
:102E70000E0313432A0502F4801240EA4C30134338
:102E800040F02000C1F8103526F81700BEE70348CF
:102E9000BDE700BF280004200000AD0B0400AD0B0F
:102EA000014BC3E9020170472800042008B502461F
:102EB000FFF766FE38B1054B083233F8123004488C
:102EC0005B0B0B7008BD0348FCE700BF2800042023
:102ED0000000AD0B0400AD0B38B50F4C94F87850E2
:102EE000BDB96022294604F1100001F04AFC2F20F0
:102EF000FEF720F9094B0A48C3F87C51D3F87C212E
:102F00004FF00042C3F80423012384F8783063674C
:102F100038BD0448FCE700BF2800042000F0024050
:102F20000000AD0B0500AD0B034B93F878000038A3
:102F300018BF0120704700BF280004200146014847
:102F4000FFF79ABC9800042001460148FFF772BCC5
:102F50009800042037B50446FFF712FE1D4B04F11C
:102F6000080233F81230D0B113F0020517D11A4815
:102F70005B0B9A008550805802F1804202F53C328A
:102F8000D2F8100540F00100C2F8100529B1012265
:102F900002FA03F3114AC2F8043303B030BDC3F39D
:102FA0008203042B11D0052B11D001A80194FFF747
:102FB000D7FD019B0169D94001F001010231204692
:102FC00003B0BDE8304001F042BE0321F7E7022123
:102FD000F5E700BF2800042000F1024000F00240A5
:102FE00008B50246FFF7CCFDC0B10F4B02F1080156
:102FF00033F81130990711D401225B0B9A400B4929
:103000009B0003F18043C1F8082303F53C33D3F858
:10301000102522F00302C3F8102508BD0021BDE8E9
:103020000840104601F013BE2800042000F00240C2
:10303000104B00F1080233F8123013B5DB070446D9
:1030400016D5FFF7CDFF2046FFF7ECFD01A8019450
:10305000FFF786FD019B00EB8300D0F8003203F000
:10306000E04343F00203C0F80032034802B010BD51
:103070000248FBE7280004200000AD0B0400AD0B64
:103080002DE9F04F002601223446604B604861492B
:1030900087B01D6835B1D0F8045315421EBF1C60BF
:1030A0001D68164304338B424FEA4202F1D1DFF828
:1030B0006091D9F87C31002B00F08A80564F3B6A32
:1030C00004933B62554B1A6A05921A624FF000084E
:1030D0000DF1100A4FEA4813009349E094FAA4F462
:1030E000B4FA84F4009B4E4A1C4404F1080332F8FD
:1030F0001330E0089908C3F38205012304F00702A6
:1031000003FA02FC1AF80020039422EA0C020AF8DF
:10311000002003A8FFF724FD039A4B0702F1800269
:1031200050F82220AB46C2F301422BD52046594627
:10313000D5B2FFF72FFD03A80394FFF711FD039B02
:10314000803350F82330C3F301439D4207D100215F
:10315000204601F07CFD2946204601F078FD03A8B9
:103160000394FFF7FDFC0122039B02FA03F30362C1
:103170005AF82840002CB1D1B8F1000F1AD14FF005
:103180000108A7E7022A0CBF032102212046019271
:1031900001F05DFD032D04D0019A022A06D1012D14
:1031A000DDD159462046FFF7F5FCD8E7032AD6D1F2
:1031B000022DF5E7C9F87C41D9F87C313A6A174904
:1031C00004923A620B6A05930B6213437FF47EAF5D
:1031D000012416B907B0BDE8F08F96FAA6F3B3FA4A
:1031E00083F304FA03F29B0003F1804303F53C33BD
:1031F000D3F81005D3F81015C0F30520C1F3014131
:1032000026EA0206FFF7C6FCE3E700BF00F1024032
:1032100000F0024020F10240002584400028844054
:1032200028000420024B1860024B002019607047F0
:10323000A4000420A80004204FF40071014800F00D
:1032400047B900BF8903042001680E4A0346914232
:1032500015D1C169A2F11022A2F1EF1291420ED153
:103260008268012A0BD8C26812B101698A4206D06D
:10327000586928B19B691B1A584258417047012070
:10328000704700BF55AA00FF0D4B70B59E68A6B1F0
:103290003046FFF7D9FF044678B9F3686BB9356952
:1032A0000DB9204670BD2846FFF7CEFF28B9EB6860
:1032B000B34202D12E462D69F2E70124F1E700BFA7
:1032C0003C0304202DE9F8433E4F3C68D4B1BC6870
:1032D000C4B100284BD0002949D001FB00F5B5FB53
:1032E000F0F0884243D1281D41D8A9070DD025F020
:1032F00003060436FC6803E06368B34239D2A4696C
:10330000002CF9D12046BDE8F8832E46F2E7F8609C
:1033100041E006F1200C04EB0C0320395960002138
:10332000DFF8A4E0C3E902142169196144F80CE054
:10333000DFF898C0C3F81CC001B1CB60C3E9052019
:103340009AB193619A6902B15361236100234FF0EE
:103350000109C4E905333B69C4E90169DB0729D5E3
:10336000FFF792FF30B3484622E0FB60EAE7002413
:10337000C8E7A36813B10120FEF7FCFAD4E90520E1
:10338000616804F12008891B2329C2D80123A360A6
:10339000002ABCD09061A36903B15A610023C4E93B
:1033A00005333B69DA0705D5FFF76EFF10B1012041
:1033B000FEF7E0FA2A4600214046444601F0E1F9D2
:1033C000A0E700BF3C03042055AA00FF669911EE58
:1033D000F8B50546002878D03C4F3B68002B74D0E8
:1033E000BA68002A71D0834203D87A68134498429D
:1033F00002D30120FEF7BEFAA5F120042046FFF714
:1034000023FF10B10120FEF7B5FA55F8183C012B47
:1034100002D00120FEF7AEFA002355F8146C45F8EF
:10342000183CAEB1B26892B955F81C3C03F12002C9
:1034300073681344736055F8103C336103B1DE6068
:1034400020462022002101F09CF9234634461E46E6
:103450002069002831D08368002B2ED16368426830
:103460002033134463600369D4E905212361D2B991
:10347000F9B9426981696261A161E2B19461A269AD
:1034800002B1546103B1DC602022002101F079F91E
:103490003B699B0719D5FFF7F7FEB0B1BDE8F840CF
:1034A0000120FEF767BA9161A1690029E1D04A6164
:1034B000DFE7F960F8E7FC60E1E7002EE8D1FB68A0
:1034C000A36103B15C61FC60E2E7F8BD3C0304204A
:1034D00038B50D46142200210446124801F051F976
:1034E00011491248FFF79EFE232D1AD914F0030349
:1034F0001FBF043DED18C3F10403E4182A46002160
:10350000204601F03EF9074B094AC3E900459C609B
:103510002260A2F11022203DA2F1EF126560E2616B
:10352000DC6038BD3C030420D1330400C532040004
:1035300055AA00FF0E4B70B553F82040013053F8E8
:103540002060A64200D870BDD4E9003528469847CF
:1035500065B1EB6830B10028B8BF4042FF28A8BF72
:10356000FF2018705A7842F001025A700834E8E7D8
:1035700004530400014B98686030704750030420E6
:10358000012208B5094B02201A70FFF7D3FF00F0A3
:1035900001FF0320FFF7CEFF00F0E6F8FCF746FF3F
:1035A000034A137B23F00103137308BD890504202C
:1035B0008001042008B50348034A0021121A01F0D3
:1035C00080FB08BDE00004208C05042000230122BC
:1035D00070B586B0CDE904230F220193CDE9023204
:1035E00018234FF4A0720E4D0E4E03FB00550E49EA
:1035F00006EBC016044602FB00110C4B304600954A
:1036000000F082F8737B0A482C75013423F0040320
:1036100000EBC4247373EE606C6006B070BD00BF35
:1036200050030420000104209009042021380400E4
:10363000D00A042080B52D4BA6B003F5006282F3BA
:10364000088883F30A880024E023294D294E85F851
:103650002230EC772C766C76AC7685F820406B6A5D
:10366000254F43F4E0236B6285F82340FDF74CFFC0
:10367000FDF742FD4FF0FF33AB62EB62FEF754F90A
:10368000FDF7F2FF40F20113ADF8243006ABB36052
:10369000CDE91F44229401F0EEFA2046FFF74AFFDD
:1036A0000120164DFFF746FF00F01CFC144BF5619E
:1036B0000593012313494FF48062CDE90343284663
:1036C0003B46CDE90144009400F01EF806466A7BB3
:1036D000284622F004026A7301F03AFB2046FFF705
:1036E00075FF3A4631462846FDF7F0FDD00A042022
:1036F00000ED00E050030420813504008001042027
:103700007A530400900504202DE9FF410E9E00F13C
:10371000580506730426C0E916550025044646736D
:103720000D9EC0E906558673D61D0C9A26F0070635
:10373000C0E919168560C573C56602920B9A01EB44
:10374000060801920A9A00924246FDF7A1FD054B38
:1037500065659B6803B11B6F4046236704B0BDE8F5
:10376000F08100BF500304202DE9F043294C2A4D7D
:1037700087B02646AE4204F130040FD300F0C6F9FC
:103780004FF4004640F2E737224CDFF89090AC420D
:1037900020D307B0BDE8F04300F088BB54F8043CE8
:1037A00054E90C01059354F8103C049354F8143C6C
:1037B000039354F8183C029354F81C3C019354F8BA
:1037C000203C009354E90A23FFF79EFF54F8303C55
:1037D0005E65CEE7636A5A1C0DD00021384623EAA5
:1037E000E373C3FB060151EAC333D4F8008004D16C
:1037F000404600F071FA3034C9E74FF47A72002382
:10380000FCF7A8FC02460B4608F11800494600F0F8
:10381000D3FCF0E7C8000420C8000420714D040068
:1038200008B50B4C0B4D4FF02002EFF3118382F3E0
:103830001288BFF36F8F01F015FB2B78A06113B9CD
:10384000FDF760FCEFE7FDF785FB0028EBD1F7E71C
:1038500050030420890504202DE9F341044617464E
:103860001E464FF02003EFF3118883F31288BFF355
:103870006F8FC368324A6BB180689168884219D0F3
:1038800057EA060318D188F31188BFF36F8F6FF0E2
:103890000F000CE0916891F90E100133E36093681A
:1038A0002161A36088F31188BFF36F8F002002B0FD
:1038B000BDE8F0812169F0E791F90E1090F90E3022
:1038C0006FF07E029942A8BF19469142B8BF1146D7
:1038D0008B422EDD01F006FA054622464146CDE92F
:1038E0000076184800F054FA0028E0D04FF020038A
:1038F000EFF3118683F31288BFF36F8F236821697A
:103900009C420AD04BB193F90E309942A8BF194698
:103910006FF07E039942B8BF1946A06801F0E2F942
:1039200000B945B13146074800F0DEF86FF00A00F3
:10393000BDE70025D1E786F31188BFF36F8FF5E768
:10394000500304208A05042038B583680446002B00
:1039500032D01C4A9268934231D1DA7B013ADA7351
:10396000C368012B05D9013BC36000F09FFA00201A
:1039700038BD4FF02003EFF3118583F31288BFF3B6
:103980006F8F0169806801F0ADF9204601F03CFAC3
:10399000A06058B190F90E2022610022826701F0E8
:1039A000D7F92946084800F09FF8DEE7E06085F384
:1039B0001188BFF36F8FD8E76FF01500D8E74FF08D
:1039C000FF30D5E7500304208A05042038B50446AB
:1039D0004FF02003EFF3118583F31288BFF36F8F4D
:1039E00001F012FA48B10022826701F0B1F92946CC
:1039F000BDE83840044800F077B8D4E902329A4272
:103A000018BF0133A360F2E78A05042013B54FF015
:103A10002004EFF3118184F31288BFF36F8F846861
:103A200044B1013C846081F31188BFF36F8F0020A3
:103A300002B010BD52EA030406D181F31188BFF32E
:103A40006F8F6FF00F00F3E7CDE9002302460248C5
:103A500000F09EF9ECE700BF8A05042038B5074D59
:103A60002C6854B1FEF74EFE054B04441C612868D7
:103A70000021BDE8384001F005BA38BD80030420BC
:103A800050030420F8B504460D464FF02003EFF331
:103A9000118783F31288BFF36F8F00214FF4004C1E
:103AA00040F2E7300D4E002331614FF47A72E4FBAF
:103AB0000C01FCF74FFB002C094B0ADC1860094B8A
:103AC000B0681D60FFF7CAFF87F31188BFF36F8FDF
:103AD000F8BD0228B8BF0220F0E700BF5003042061
:103AE000800304207C03042049B9EFF3058030B93A
:103AF000054BDA699B689A4201D0FDF76FBB81F3F1
:103B00001188BFF36F8F7047500304204FF02003DC
:103B1000EFF3118183F31288BFF36F8F044B9A6820
:103B2000D37B013BD37381F31188BFF36F8F704751
:103B30005003042038B502460C4801F003F90C4D3F
:103B4000044600B9EC68AB684AB95A7BD20606D184
:103B5000A26922B9DA897F2A01D9EB6138BD9C427A
:103B600002D02046FFF77AFFEC61F7E770030420EC
:103B70005003042070B590F90D200146002A437BC4
:103B800004DA03F07F03437301F0B4F84B7B154A6A
:103B900063F07F034B7302F12005D2E90834AB4296
:103BA0001BD0D3B191F90E6093F90E0086420FD06D
:103BB000801B00280CDD5868C1E9003001605960A5
:103BC0009068BDE87040431A58425841FFF7B2BFB1
:103BD000A34202D01B68002BE6D1C1E9005421604A
:103BE0005162EDE75003042038B54FF02003EFF3A6
:103BF000118583F31288BFF36F8F174B174A9C68A8
:103C000011688C4207D12046FFF728FF85F3118801
:103C1000BFF36F8F38BD00211160114A1268C2B125
:103C2000E2897F2A15D8627BD20612D10D4A94F917
:103C30000E10126891420CDB0B4A944209D01A69AB
:103C4000824203DC2046FFF795FFDCE7121A1A6177
:103C5000DCE70022FBE700BF5003042078030420C8
:103C6000800304207C0304200001042070B490F938
:103C70000D20437B002A2ADBDA0628D1826932BB79
:103C8000144A63F07F03437302F12005D2E908343C
:103C9000AB4217D0B3B190F90E6093F90E108E427B
:103CA0000BD0891B002908DD5A68C0E9003210607A
:103CB0005860002070BCFFF73DBFA34202D01B68D4
:103CC000002BEAD1C0E9005420605062F1E770BCDB
:103CD000704700BF5003042010B54FF02002EFF3EF
:103CE000118482F31288BFF36F8F427B510704D493
:103CF00084F31188BFF36F8F10BD22F0040242736A
:103D0000FFF7B4FF2146BDE810400148FFF7ECBEC5
:103D10008A05042008B590F90D200146002A437B4E
:103D200004DA03F07F03437300F0E4FF044B986868
:103D3000431A58425841BDE80840FFF7FBBE00BF98
:103D4000500304202DE9F041064615461C464FF06D
:103D50002003EFF3118783F31288BFF36F8F01F015
:103D600029F887F31188BFF36F8FB4F1FF3F08BFC5
:103D7000B5F1FF3F08D02A46234606F11800034953
:103D8000BDE8F04100F018BABDE8F081714D0400C3
:103D900010B50C46064B11469868064B1860DDE9D5
:103DA0000223FFF7CFFF2046BDE81040FDF716BA0B
:103DB0005003042078030420F8B504464FF0200394
:103DC000EFF3118683F31288BFF36F8F437B49B201
:103DD000DA0633D182698ABB03F07F03437300F0B4
:103DE00089FF437B174A63F07F0343738173104657
:103DF00050F8203F83421BD0D3B1576A93F90E503D
:103E0000A94210D06D1A002D0DDD5A68C4E90032A8
:103E100014605C600120FFF78DFE012086F311889D
:103E2000BFF36F8FF8BDBB4202D01B68002BE5D1FA
:103E3000536AC4E900031C605462EBE70020A173DD
:103E4000ECE700BF5003042070B50446183000F0C2
:103E5000F3FF4FF02003EFF3118683F31288BFF3D3
:103E60006F8F94F90D20637B002A05DA03F07F033E
:103E70002046637300F03EFF0B4D637BA86843F060
:103E800010036373031B58425841FFF753FE86F338
:103E90001188BFF36F8FAB68A34203D1BDE87040B8
:103EA00000F046BF70BD00BF5003042010B54FF0B6
:103EB0002003EFF3118483F31288BFF36F8F084B55
:103EC00000209A68D37B0133D373FFF733FE84F36A
:103ED0001188BFF36F8FBDE8104000F029BF00BF0D
:103EE000500304200021044B084603F12002C3E9DB
:103EF0000822FFF7C7BD00BF50030420F8B54FF0FC
:103F00002003EFF3118583F31288BFF36F8F1A49F3
:103F10008868437B03F07F03437300F0EBFE0846A1
:103F20008B685A7B62F07F025A7350F8202F8242CE
:103F30001CD0DAB14F6A93F90E6092F90E40A64296
:103F40000FD0A41B002C0CDD5168C3E900210B60CD
:103F500053600120FFF7EEFD2846BDE8F840FDF76D
:103F60003DB9BA4202D01268002AE6D14A6AC3E9D2
:103F7000000213604B62ECE75003042050EA010397
:103F80002DE9F04105460E4603D1FFF7B7FF0020AB
:103F900033E06FF001044FF0FF33241A63EB0103A9
:103FA000012C73F1000302DA00F086FF44194FF090
:103FB0002003EFF3118883F31288BFF36F8F104F44
:103FC000104BB8681860FFF7A5FEB8680E492A467E
:103FD0003346183000F0F0F8BA684046537B43F09F
:103FE00010035373FDF7FAF800F066FF201A63EB35
:103FF0000303012873F10003C9DBBDE8F08100BFB2
:104000005003042078030420714D0400B1F1FF3FF8
:1040100008BFB0F1FF3F08B506D1084B9868FFF71D
:1040200013FF4FF0FF3008BDFFF7A8FF4FF47A737E
:1040300080FB0303C00B40EA4340F4E75003042035
:10404000014B9868704700BF500304202DE9F041F0
:1040500004464FF02003EFF3118683F31288BFF379
:104060006F8F437B1A0705D586F31188BFF36F8FD7
:10407000BDE8F08123F0200242F00801D20920D1EE
:104080004173A36813B1204600F03CFE04F1180010
:1040900000F0D2FE4FF0000804F15807A56DBD42B4
:1040A00000D0B5B90120FFF745FD104B9B68A34236
:1040B000DAD1EFF30583002BD6D13046FDF78EF829
:1040C000D2E703F05F0343F00803437300F012FEEE
:1040D000D7E7284600F016FE05F1180000F0ACFE08
:1040E0002846C5F87880FFF7C1FDD7E750030420C4
:1040F00008B50648064A0749121A00F0E4FDBDE873
:104100000840054A0549064800F0DDBD00000420CE
:10411000DC000420B453040000000000B453040089
:1041200000000420034B1B680BB9FEF7EBBA00201C
:10413000704700BF84030420104B10B51C689C42DC
:1041400008BF0024FFF7EEFFA4B1D4E904321B1A24
:1041500062EBE070B3F1004F70F100020ADA002860
:10416000ACBF18460020064B1B6913B19842A8BF8C
:10417000184610BD6FF00040F5E700BFAC0004200A
:104180005003042030B5036868B10A4A526890426F
:1041900009D043B1D3E90421D0E90445121941EB18
:1041A0000501C3E90421426813605A600023C0E995
:1041B000003330BDAC000420B3F1FF3F08BFB2F1C3
:1041C000FF3FF8B504461F46154667D081604FF0A3
:1041D0002003EFF3118683F31288BFF36F8F6FF024
:1041E00001024FF0FF3C531B6CEB0703002B1BDB62
:1041F0002B4BD3E90013521A6CEB0303551B63EBF3
:104200000703012D73F10002BCBF01250023C0E9A3
:1042100004532448D0E9003C834218D1C4E9000C7F
:10422000CCF80040446026E0FFF77CFF013547F101
:1042300000072D1847EBE077C4E90457E9E7521A65
:1042400065EB07059C45C4E90425E7D01B68002BF6
:10425000E4D0D3E90417D4E904258A4275EB070EAC
:10426000EDDA8A1A67EB0505C3E904255A68C4E943
:10427000003214605C60036883420BD09C4209D119
:10428000FFF75AFF18B1084B1B69834202D0002187
:10429000FEF708FA86F31188BFF36F8FF8BD00BFF1
:1042A00000020420AC000420500304202DE9F84350
:1042B0000546FFF799FC4FF02003EFF3118483F3D9
:1042C0001288BFF36F8F244EDFF890803560244D45
:1042D000D8F80000326840454FEAE277D5E9001E81
:1042E0000BD050B1D0E9043C9A4277EB0C0916DAB6
:1042F0009B1A6CEB070CC0E9043C52184EEB070705
:10430000C5E9002700253560FFF716FF2946FEF7AF
:10431000C9F984F31188BFF36F8FBDE8F88359188A
:104320004EEBE377D31A336000220023C0E9042365
:10433000C5E90017FFF726FF84F31188BFF36F8FDD
:10434000836898474FF02003EFF3118483F31288BA
:10435000BFF36F8FBCE700BF84030420AC000420D0
:104360000002042010B54FF02003EFF3118483F313
:104370001288BFF36F8FFEF7C5F9054AD2E9003105
:10438000C01841F1000184F31188BFF36F8F10BD95
:1043900000020420024A0349034800F047B800BF66
:1043A000B25304007F5304008C53040030B595B021
:1043B00005460C463022002108A800F0E2F93F2310
:1043C000079307AB039334230694CDE9043544B136
:1043D00001220548009205AB03A9FEF7E9F915B0E3
:1043E00030BD2046FBE700BF117C0300034658B1F7
:1043F000426802F00302012A03D0032A04D10268B2
:1044000012B10020986070476FF015007047426845
:10441000034602F00302032A4FF00002816014BF3A
:10442000104600685A607047002070470FB407B507
:1044300004A951F8040B0191FCF74EF803B05DF8A4
:1044400004EB04B07047038B13F0070305D1036836
:10445000002B0CBF002003207047022B05D1438B9B
:10446000002B14BF002004207047012B05D10368E6
:10447000002B0CBF002005207047002070472DE95D
:10448000F0410D4607461946281D90461E46FFF787
:10449000BEFF044638B13346424629463846A44654
:1044A000BDE8F0416047BDE8F08110B44FF0200452
:1044B000EFF3118284F31288BFF36F8F416110BC58
:1044C0000121FCF717B810B50C4640B139B1081DF1
:1044D000FFF78CFF28B9A36833F0030301D06FF016
:1044E000150010BD38B50C46054658B151B10B68E2
:1044F00043B14B6833B11C22002100F042F9002087
:104500002C6138BD6FF01500FBE770B504460E4610
:10451000FFF7D9FF051E31DB4FF02003EFF31181C8
:1045200083F31288BFF36F8F4FF6FF75638B208B79
:10453000AB4200F007022ED0022A0ED10133638372
:104540001546012381F31188BFF36F8FB3B10023A8
:1045500031462046FFF793FF10E0830701D0062A7B
:104560000ED100233360636893B9C4E90066154631
:1045700062B90A4620460221FBF7BCFF284670BDFF
:10458000052A0CBF6FF085056FF004050023D9E7FD
:104590001E606660EBE76FF00A05F7E7044608B5B2
:1045A000084611461A46A047FFF74AFDFDF746F8B0
:1045B0002DE9F84F9A46D37880466F2B0F46154663
:1045C000A3F1410B29D024D8582B14BF0A2610265A
:1045D000DDF828903246002340463946FBF7BAFD05
:1045E000092AD4B21ED83034B045E4B277F10003C2
:1045F00009F8014D01D3D14511D82B789B0605D57B
:10460000082E15D1AB7843F00803AB704846BDE8DF
:10461000F88F03F0F703702BD7E70826D8E780461A
:104620000F46D7E7BBF1190F94BF37345734DBE798
:10463000102EEBD1AB7843F01003E6E72DE9F04103
:104640000746884615461E461446B442A4EB0500AC
:1046500002D33EB923782BB1414614F8010BB84779
:104660000028F2DABDE8F08170474FF02003EFF345
:10467000118183F31288BFF36F8F4FF04023022222
:10468000C3F8D0260122C3F80427C3F80429C3F8CD
:10469000002B81F31188BFF36F8F0020704706282D
:1046A00008D14FF040230122C3F80025BFF34F8FFC
:1046B00020BFFDE77047002383F31188BFF36F8F9E
:1046C000704700F0E3BA0146006800F0DFBA00214D
:1046D0000120FFF7F6BF08B5FCF760FDBDE8084014
:1046E000FCF728BE436E83F30B8870477047704712
:1046F00040E800F313F4803FD8B208BF6FF0150014
:1047000070477FB50A894E890B684D6802F01F0219
:1047100042EA461200938DF8082023F01F036A1E18
:10472000134423F01F030728039304D86946FCF7BA
:10473000B7FF04B070BD6FF01500FAE7704708B519
:10474000FEF718FF0C230360002008BD034600207D
:104750001A5C02B970470130FAE7034600201A5C80
:104760000AB1884200D170470130F8E710B5431E06
:104770000A44914200D110BD11F8014B03F8014FDA
:10478000F7E70346C9B20244934200D1704703F8E9
:10479000011BF9E74FF0FF3070470C220369C9B2E3
:1047A00001FB0233986F00F0070070474FF02003C1
:1047B000EFF3118283F31288BFF36F8F036803F066
:1047C000C00343F00203036082F31188BFF36F8FCD
:1047D0007047034670B50069C9B24FF02004EFF38B
:1047E000118684F31288BFF36F8F0C2505FB01043B
:1047F000A46F14F0C00401D0A24210D1012205FB25
:1048000001008267002086F31188BFF36F8F28B9FB
:104810005B6803EBC1014B689847002070BD4FF007
:10482000FF30F0E78022FFF7D4BFF8B5069F0546BA
:104830000469C9B24FF02000EFF3118C80F31288A5
:10484000BFF36F8F0C2606FB0146B06F00F0070E1A
:10485000BEF1010F11D1B76700268CF31188BFF3A9
:104860006F8F46B90C2000FB0144C4E91C236B6820
:1048700053F8313098473046F8BD00F0C000874209
:1048800014BF4FF0FF366FF07706E6E713B58024CC
:104890000094FFF7CAFF02B010BD10B41C240069D9
:1048A000CBB203FB0400002110BC10470320FEF72D
:1048B0009DB80220FEF79AB80020FEF797B80320B3
:1048C00000F07CB9022000F079B9002000F076B940
:1048D0001046FFF77BB8436800205B681B690B60DC
:1048E000704743685B68586842400A4042405A60DB
:1048F00000207047436800205B68996070474368F8
:1049000000205B68D9607047436800205A6853688C
:104910004B4053607047036930B5586858B1002464
:10492000814212D108689D6854B98D42586000D107
:104930009860002008606AB9002030BD2846EFE783
:104940008D42206008BF9C60F3E705680446002D97
:10495000F4D13AB15A6898680A6059600028EBD1DE
:104960009960EAE76FF01500E7E70B460269D2E9C4
:10497000010183E803000020704743681B68D3F8F7
:104980008004C3F880047047436802691B68D3F849
:10499000100148B10020527C0A70C3F81001D3F80E
:1049A000102101221A6070474FF0FF3070470268F3
:1049B0000346D2F8580140B95B689B0706D4D2F889
:1049C0002001003818BF012070470120704742685D
:1049D0001368D3F80413C90518D5D3F82011A9B169
:1049E0004FF02000EFF3118180F31288BFF36F8F37
:1049F000D3F8200130B10020C3F82001D3F8200102
:104A00000120D86081F31188BFF36F8F5268D206FE
:104A100015D54FF02001EFF3118281F31288BFF317
:104A20006F8FD3F8581111B10021C3F800154FF45E
:104A30008001C3F8081382F31188BFF36F8F7047AA
:104A4000084608B51146FFF7B1FC002818BF16202C
:104A500008BD08B500F039FA002818BF6FF015003E
:104A600008BD704730B543681360037A03F1005303
:104A7000013BDB00456814681D44AC4202D96FF06D
:104A8000010030BD65798D4202D008341460F1E731
:104A90000020F6E770B51546044600EB8106A642F5
:104AA00001D1002070BD23681A0C222A78D8DFE8D3
:104AB00002F01222292E7777777777777733387756
:104AC00077777777777777773D494E53777777584A
:104AD0005E63686D720003F03F03C5F80C35206813
:104AE00000F03F00FDF740FE012211462068FDF76F
:104AF00013FE0434D3E703F03F03C5F81435002256
:104B00000021F3E703F03F03C5F80835E7E703F0BA
:104B10003F03C5F81035F2E703F03F03C5F8083549
:104B2000EDE703F03F03C5F80C35E8E703F03F037A
:104B3000C5F860352068C0F3403100F03F00FDF754
:104B400023FED1E703F03F03C5F86435F2E703F035
:104B50003F03C5F86835EDE703F03F03C5F86C3552
:104B6000E8E703F03F03C5F824350122C8E703F066
:104B70003F03C5F82835F8E703F03F03C5F83035A3
:104B8000F3E703F03F03C5F83435EEE703F03F03E6
:104B9000C5F83835E9E703F03F03C5F83C35E4E7ED
:104BA0006FF085007EE7002008B5FCF7FFFC0020D1
:104BB0007047FDF72FBE004700F082B9FDF77ABEBF
:104BC000F7B51746DDE90846019001A81D46FDF737
:104BD000C7FF019B002F00EB830014BF02230023BB
:104BE000002918BF43F00103002D14BF4FF00C0C37
:104BF0004FF0000C002C43EA0C0314BF4FF4706C10
:104C00004FF0000C002E43EA0C0314BF4FF4403C5D
:104C10004FF0000CD0F8002243EA0C0322EA030311
:104C200001B109780FB13F787F0019430DB12D789C
:104C3000AD0039430CB1227814020D430EB1367821
:104C400036042C433443C0F8004203B0F0BD1FB516
:104C50000DF10F03019300238DF80F101A4619462A
:104C60000093FFF7ADFF05B05DF804FB08B5FEF754
:104C7000E3FA002008BD704738B1C3681888C0F354
:104C80000800A0F58073584258417047F8B50546B2
:104C90000E464FF02003EFF3118783F31288BFF322
:104CA0006F8FFFF7CDF9314604462846FFF77BFFAB
:104CB00087F31188BFF36F8F2046BDE8F840FCF7FB
:104CC000BDBCFFF75EBDFFF751BDEFF305800038B7
:104CD00018BF0120704708B5FCF702F9BDE808408D
:104CE000FFF7BFBE90F90E308B4201D0FFF764B8DA
:104CF00000207047D0E9003213605A600023C0E9F9
:104D00000033704708B5FFF7F5FF437B23F002033C
:104D100043730023836008BD034620B9EFF3058287
:104D20000AB9FCF75BBA83F31188BFF36F8F704742
:104D30004FF02003EFF3118083F31288BFF36F8FDE
:104D4000FFF7EABF03460068834208BF00207047B0
:104D500010B54FF02003EFF3118483F31288BFF3F3
:104D60006F8FFEF783FF84F31188BFF36F8F10BD41
:104D7000014610B54FF02003EFF3118483F312883E
:104D8000BFF36F8F10F80B3C13F0280F0DD151F8C3
:104D9000103C18380BB1FFF7B5FF11F80B3C23F0AE
:104DA000140301F80B3CFEF761FF84F31188BFF395
:104DB0006F8F10BD38B504460D46FEF7ABFF637B21
:104DC00043F00203637395B12B68A5609D4215D033
:104DD000A3B194F90E1093F90E20914208D0521A03
:104DE000002A05DD5A68C4E9003214605C6038BDF1
:104DF0006A68934202D01B68002BECD16B68C4E94F
:104E000000531C606C60F2E738B54FF02003EFF3FD
:104E1000118583F31288BFF36F8FFFF793FF04466A
:104E200020B1FFF76FFF183000F006F885F3118806
:104E3000BFF36F8F204638BD10B54FF02002EFF35F
:104E4000118482F31288BFF36F8F03683BB1FFF7C1
:104E500099F9002084F31188BFF36F8F10BD6FF0B4
:104E60001500F7E710B54FF02003EFF3118483F33B
:104E70001288BFF36F8FFFF75FF984F31188BFF3D8
:104E80006F8F10BD70B504460D464FF02003EFF351
:104E9000118683F31288BFF36F8FFFF74DF9012856
:104EA00005DDA04203DB29462046FDF7FBFB86F328
:104EB0001188BFF36F8F70BD08B5FFF753FA08BDB7
:104EC00008B1FBF7B9BF704770470020704700007A
:104ED000FFF76FBEB4B2FF7F010000006B46040015
:104EE00000000000051A04002C4F0400B11D04004E
:104EF0005C4F0400B11D0400444F0400534A0400F9
:104F0000744F0400FD2004008C4F0400811C040039
:104F1000000000003D25040000000000AF4B04002D
:104F2000000000006D4C040000000000515304001C
:104F3000445204002C520400B400042064020420F3
:104F4000E45104005E5304009452040070520400C3
:104F5000BC00042010030420DE5104005753040059
:104F6000A452040070520400B80004201C03042062
:104F7000D85104006C53040000000000FC520400EF
:104F8000C400042000000000D25104006553040056
:104F9000EC520400D8520400C00004200C0004208D
:104FA000CC51040000000000CF46040000000000C7
:104FB000CF46040000000000CF46040000000000BF
:104FC000CF46040000000000CF460400A92A0400D8
:104FD000B74B040000000000CF46040000000000B2
:104FE000CF4604008C4F0400CF49040000000000AD
:104FF000CF46040000000000CF460400000000007F
:10500000CF46040000000000CF460400000000006E
:10501000CF46040000000000CF460400000000005E
:10502000CF46040000000000CF460400000000004E
:10503000CF46040000000000CF460400000000003E
:10504000CF46040000000000CF460400000000002E
:10505000BD25040000000000CF4604000000000051
:10506000CF46040000000000CF460400000000000E
:10507000CF46040000000000CF46040000000000FE
:10508000CF46040000000000CF46040000000000EE
:10509000CF46040000000000CF46040000000000DE
:1050A000CF46040000000000CF46040000000000CE
:1050B000CF46040000000000CF46040000000000BE
:1050C000CF46040000000000CF46040000000000AE
:1050D000CF46040000000000CF460400000000009E
:1050E000CF46040000000000CF460400000000008E
:1050F000CF46040000000000CF460400000000007E
:10510000CF46040000000000CF460400000000006D
:10511000CF46040000000000CF46040081300400A8
:10512000B74B040000000000CF4604000000000060
:10513000CF46040000000000CF460400000000003D
:10514000CF46040000000000CF460400000000002D
:10515000CF46040000000000CF460400000000001D
:10516000CF46040000000000CF460400000000000D
:10517000CF46040000000000CF46040000000000FD
:10518000CF46040000000000CF46040000000000ED
:10519000CF46040000000000CF46040000000000DD
:1051A000CF46040000000000CF46040000000000CD
:1051B000CF46040000000000CF46040000000000BD
:1051C000CF46040000000000CF46040000800080AD
:1051D000FF7F00800080FF7F00800080FF7F0080D5
:1051E0000080FF7F00800080FF7FFFFFFFFFFFFF49
:1051F0000338FDD8704700000000042000000000C4
:1052000006000100020000000C5204000000000033
:105210004253040006000000E0FF0F0000000420DD
:105220004A53040021000000E0FF0720311B040066
:10523000254804008D480400000000009B4704003E
:1052400000000000CD1A0400651B0400B9480400EA
:10525000CB480400B3480400C5480400AD4804002E
:10526000BF480400C11904009119040000000000A7
:105270002D1E0400D7480400E3480400F54804004C
:10528000FF48040009490400D91C04001749040020
:1052900000000000FFFFFFFF002584400000000029
:1052A00000000000FFFF0000002884400000000014
:1052B0000100000000800040D05204000100000006
:1052C0001400000013000200D6000100D500030006
:1052D000C05204000400000089490400ED210400CC
:1052E0007B490400811F04006B49040000800040DA
:1052F0000200000000000000B4520400414A040013
:1053000000000000DC4E0400144F04001C4F040099
:105310002C4F04002C4F0400F5FFFFFF5374617401
:1053200075733A2025640A004469676573743A20EE
:10533000002530327800286E696C29006578697420
:105340000A00464C4153485F30005352414D5F3094
:1053500000434C4F434B004750494F5F310047508B
:10536000494F5F3000554152545F3000435259500D
:10537000544F43454C4C5F5357006D61696E007646
:10538000332E302E39392D6E637331002A2A2A20AC
:10539000426F6F74696E67205A6570687972204F2A
:1053A00053206275696C64202573202573202A2A96
:1053B0002A0A000029440400FFFFFFFF954704006C
:1053C0000000000000C20100000103000000000016
:1053D000000000000090D003FFFFFFFF000000006E
:1053E00000000000000000000000000000000000BD
:1053F00000000000000000000000000000000000AD
:10540000000000000000000000000000000000009C
:10541000000000000000000000000000000000008C
:10542000000000000000000000000000000000007C
:10543000000000000000000000000000000000006C
:10544000000000000000000000000000FF0000005D
:1054500000000000000000003F4704003D4704003A
:10546000AC000420AC00042000000000000000009C
:10547000000000000000000000000000C800042040
:10548000C800042000000000000000000E00000022
:00000001FF
